:020000040800F2
:1000000098BB0020D5010008010C0008D3070008A8
:10001000FD0B00086D040008271800080000000010
:100020000000000000000000000000006F13000846
:1000300011060008000000008B0F00088114000862
:10004000EF010008EF010008EF010008EF010008D0
:10005000EF010008EF010008EF010008EF010008C0
:10006000EF010008EF010008EF010008EF010008B0
:10007000EF010008EF010008EF010008EF010008A0
:10008000EF010008EF010008EF010008EF01000890
:10009000EF010008EF010008EF010008EF01000880
:1000A000EF010008EF010008EF010008EF01000870
:1000B000EF010008EF010008EF010008EF01000860
:1000C000EF010008EF010008EF010008EF01000850
:1000D000EF010008E51400086D150008F51500088B
:1000E000EF010008EF010008EF010008EF01000830
:1000F000EF010008EF010008EF010008EF01000820
:10010000EF010008EF010008EF010008EF0100080F
:10011000EF010008EF010008EF010008EF010008FF
:10012000EF010008EF010008EF010008EF010008EF
:1001300000F002F800F03FF80AA090E8000C8244BA
:100140008344AAF10107DA4501D100F034F8AFF297
:10015000090EBAE80F0013F0010F18BFFB1A43F0A5
:1001600001031847241F0000441F0000103A24BF59
:1001700078C878C1FAD8520724BF30C830C144BF0C
:1001800004680C607047000000230024002500264E
:10019000103A28BF78C1FBD8520728BF30C148BFEA
:1001A0000B607047782900F07780002070471FB5FA
:1001B0001FBD10B510BD00F027F91146FFF7F7FF7E
:1001C00001F0B2FB00F045F903B4FFF7F2FF03BC06
:1001D00001F02BFB0948804709480047FEE7FEE78E
:1001E000FEE7FEE7FEE7FEE7FEE7FEE7FEE7FEE7E7
:1001F00004480549054A064B70470000851400086D
:100200003101000898B5002098BB002098B7002065
:1002100098B70020704700000FB4044910B503AA36
:10022000029800F0C3F810BC5DF814FB2800002011
:100230002DE9F0410E460446002020622046E16888
:10024000884730B3252805D0D4E901219047206A9A
:10025000401CF2E7E168204600278847050018D0D7
:10026000A5F14100192802D820354FF40067324625
:10027000294620462760FFF795FF40B1012804D0AA
:10028000F61D26F007060836D8E7361DD6E72846BD
:10029000DAE7206ABDE8F08170B504460D462146D4
:1002A0001068AFF300802188090502D50F4A7A440F
:1002B00002E00E4A7A440E32002104F1240305E0E4
:1002C00000F00F060009965D5E54491C0028F7D126
:1002D00020780023000704D5702D02D009B1022335
:1002E00011322046BDE8704000F006B8AE1D000097
:1002F00070477047704770472DE9F0470D469946A3
:100300009246044600F124080168880604D5E06995
:1003100021F01001216000E00120A84201DD471B0F
:1003200000E00027A1697A1902EB0900081AA06110
:100330002078C00602D42046AFF30080002608E0F3
:10034000D4E901211AF806009047206A401C761C67
:1003500020624E45F4DB2078C0060AD52046AFF374
:10036000008006E0D4E9012130209047206A401C3B
:100370002062381EA7F10107F4DC07E0D4E901216F
:1003800018F805009047206A401C2062281EA5F13D
:100390000105F3DC2046AFF300802078000602D58B
:1003A0000220BDE8F0870120FBE70000074B70B595
:1003B0000D467B4400F011F80446284600F020F872
:1003C00010B14FF0FF3070BD204670BD57150000D2
:1003D00001694A1C02610878704700B58FB0CDE909
:1003E00001310021059105497944CDE903101146F9
:1003F0006846FFF71DFF0FB000BD0000E5FFFFFFDF
:10040000007B00F080007047754600F02BF8AE4688
:1004100005006946534620F00700854618B020B510
:10042000FFF7E6FEBDE820404FF000064FF0000762
:100430004FF000084FF0000B21F00701AC46ACE88C
:10044000C009ACE8C009ACE8C009ACE8C0098D46F9
:10045000704710B50446AFF300802046BDE8104059
:10046000FFF7B2BE0048704734B5002000BFFEE77A
:1004700021B1026842F00102026004E002684FF616
:10048000FE731A400260704701684FF6FE72114019
:1004900001600021016041608160C1604B49884278
:1004A00008D14A490839496841F00F01474A083ADA
:1004B00051608AE045491431884208D143490839DE
:1004C000496841F0F001414A083A51607DE03F49F6
:1004D0002831884208D13D490839496841F47061A2
:1004E0003A4A083A516070E038493C31884208D1B4
:1004F00036490839496841F47041344A083A516034
:1005000063E032495031884208D13049083949689E
:1005100041F470212D4A083A516056E02B4964316C
:10052000884208D129490839496841F47001274AAD
:10053000083A516049E025497831884208D1234979
:100540000839496841F07061204A083A51603CE03E
:100550001F49884206D1011F096841F00F01021F9F
:10056000116032E01A491431884208D11849091F34
:10057000096841F0F001164A121F116025E0144984
:100580002831884208D11249091F096841F4706175
:100590000F4A121F116018E00D493C31884208D102
:1005A0000B49091F096841F47041094A121F116083
:1005B0000BE007495031884207D10549091F0968F6
:1005C00041F47021024A121F116070470800024076
:1005D0000804024010B50022026847F6F0739A43FF
:1005E0000C6A8B6823430C6923434C6923438C6951
:1005F0002343CC6923434C6A23438C6A23431A4325
:100600000260CB6843600B6883604B68C36010BDB9
:1006100070472DE9F0410246002500260020002306
:100620000024002791F803C00CF00F0591F803C0D7
:100630000CF0100CBCF1000F03D091F802C04CEA92
:10064000050591F800C0BCF1000F31D014680020FE
:100650002BE04FF0010C0CFA00F3B1F800C00CEAEB
:1006600003069E4220D183004FF00F0C0CFA03F7D3
:10067000BC4305FA03FC4CEA040491F803C0BCF146
:10068000280F06D14FF0010C0CFA00FCC2F814C080
:100690000AE091F803C0BCF1480F05D14FF0010CFE
:1006A0000CFA00FCC2F810C0401C0828D1D314601A
:1006B000B1F800C0BCF1FF0F34DD546800202EE01B
:1006C00000F1080C4FF0010808FA0CF3B1F800C073
:1006D0000CEA03069E4221D183004FF00F0C0CFA66
:1006E00003F7BC4305FA03FC4CEA040491F803C089
:1006F000BCF1280F05D100F1080C08FA0CF8C2F87B
:10070000148091F803C0BCF1480F07D100F1080C28
:100710004FF0010808FA0CF8C2F81080401C0828B5
:10072000CED35460BDE8F081F0B50A460023002422
:100730000021002500F00046B6F1004F02D11D4E09
:10074000F16901E01B4E7168C0F3034583B200F408
:100750004016B6F5401F08D121F07061154E76683D
:1007600026F07066134F7E6012E000F48016B6F536
:10077000801F06D1032606FA05F4A14341F07061FB
:1007800006E0460D360103FA06F6B14341F070610A
:1007900022B1460D360103FA06F6314300F0004659
:1007A000B6F1004F02D1034EF16101E0014E7160DC
:1007B000F0BD0000000001400246002093680B409D
:1007C0000BB1012000E000207047416170470161DA
:1007D000704700BFFEE7000008B50121442000F08B
:1007E000E5FB0820ADF8000048208DF803006946BD
:1007F0000648FFF70EFF1020ADF8000048208DF8E6
:10080000030069460148FFF704FF08BD00180140D6
:1008100010B5044614B10120194908701848007831
:10082000E8B110211748FFF7C7FF20B1082115488C
:10083000FFF7C2FF98B90A2001F01CF80020104908
:10084000087010210F48FFF7B7FF08B9012010BD4D
:1008500008210C48FFF7B0FF78B90220F7E7102114
:100860000848FFF7A9FF012807D108210548FFF72D
:10087000A3FF012801D1024908700020E7E700002A
:1008800020000020001801402DE9F04107460C46E9
:1008900015461E462A2000F071F9384600F05EF930
:1008A000284600F05BF92B2000F068F904F11401F0
:1008B00088B200F053F906F1140188B200F04EF945
:1008C0002C2000F05BF9BDE8F08170B504460D46C0
:1008D00016462B46224629462046FFF7D5FF3046CE
:1008E00000F03CF970BD2DE9F04706460F4614466E
:1008F0001D46DDF820A0681E83B2601E82B2394614
:100900003046FFF7C1FFB8460EE0B14606E050465C
:1009100000F024F909F101001FFA80F9A145F6DB86
:1009200008F101001FFA80F8A845EEDBBDE8F0876A
:1009300008B501214FF4B07000F038FB4FF480503F
:10094000ADF8000010208DF8030003208DF80200A0
:1009500069461748FFF75DFE4FF480511448FFF7D2
:1009600036FF48F23200ADF8000010208DF8030089
:1009700003208DF8020069460E48FFF74AFE48F250
:1009800032010C48FFF723FF4FF4A060ADF80000E0
:1009900010208DF8030003208DF8020069460648F8
:1009A000FFF737FE4FF4A0610348FFF710FF08BDC3
:1009B00000200140001401400018014010B5FFF76D
:1009C000B7FF10216348FFF700FF642000F052FFDB
:1009D00010216048FFF7FBFE642000F04BFF4FF44E
:1009E00080715D48FFF7F3FE642000F043FF1120A3
:1009F00000F0C4F8782000F03DFF362000F0BEF88B
:100A0000002000F0B4F83A2000F0B8F8052000F01B
:100A1000AEF8B22000F0B2F80C2000F0A8F80C20DC
:100A200000F0A5F8002000F0A2F8332000F09FF8B5
:100A3000332000F09CF8B72000F0A0F8352000F03B
:100A400096F8BB2000F09AF8322000F090F8C2200F
:100A500000F094F8012000F08AF8C32000F08EF82E
:100A6000152000F084F8C42000F088F8202000F061
:100A70007EF8C62000F082F80F2000F078F8D02031
:100A800000F07CF8A42000F072F8A12000F06FF8CC
:100A9000E02000F073F8D02000F069F8082000F0A2
:100AA00066F80E2000F063F8092000F060F80920D5
:100AB00000F05DF8052000F05AF8312000F057F8FA
:100AC000332000F054F8482000F051F8172000F0CF
:100AD0004EF8142000F04BF8152000F048F83120B3
:100AE00000F045F8342000F042F8E12000F046F82C
:100AF000D02000F03CF8082000F039F80E2000F07B
:100B000036F8092000F033F8092000F030F81520FD
:100B100000F02DF8312000F02AF8332000F027F8FB
:100B2000482000F024F8172000F021F8142000F0ED
:100B30001EF8152000F01BF8312000F018F83420C2
:100B400000F015F8212000F019F8292000F016F81F
:100B500010BD0000001401400018014010B504460B
:100B6000201200F01DF8E0B200F01AF810BD10B528
:100B70000446204600F014F810BD000010B50446ED
:100B80004FF400410548FFF720FE204600F008F82A
:100B90004FF400410148FFF71AFE10BD0014014058
:100BA00070B5044602211348FFF70FFE002519E037
:100BB0004FF480511048FFF708FE04F0800020B188
:100BC00020210C48FFF703FE03E020210948FFF72E
:100BD000FCFD4FF480510848FFF7F9FD6006040E54
:100BE000681CC5B2082DE3DB02210248FFF7EFFDC8
:100BF00070BD0000001401400020014000BFFEE76E
:100C00007047000070B5002100230F22C47804B3A0
:100C1000154C246804F4E064C4F5E064210AC1F1D1
:100C20000403CA40447804FA03F184781440214351
:100C300009010E4C0678A155047804F01F05012423
:100C4000AC4005786D11AD0005F1E025C5F8004117
:100C500009E0047804F01F050124AC40044D067837
:100C6000761145F8264070BD0CED00E000E400E090
:100C700080E100E070B50546084800EBC506002499
:100C800009E0012202EB4402B15C16F8140000F006
:100C90004FFB601CC4B2042CF3DB70BD382000088D
:100CA00038B50025012140F2391000F07FF91020FD
:100CB000ADF8000048208DF8030003208DF80200F5
:100CC00069465848FFF7A5FC10215648FFF77FFDFD
:100CD0000820ADF8000010208DF803006946514847
:100CE000FFF797FC08214F48FFF771FDFF20ADF893
:100CF000000048208DF8030069464B48FFF789FC47
:100D00004020ADF8000048208DF8030069464748B0
:100D1000FFF77FFC40214548FFF759FD4FF40040A5
:100D2000ADF8000010208DF8030069464048FFF739
:100D300070FC4FF400413E48FFF749FD4FF48040FE
:100D4000ADF8000048208DF8030069463848FFF7E9
:100D500060FC4FF480413648FFF739FD01213548EA
:100D6000FFF7E2FC0020344908600A2000F082FD11
:100D700000203249C1F8BC010A2000F07BFD0120AF
:100D80002F49086000F08CF90121FF2000F0D0FA13
:100D90008021122000F0CCFA322000F06BFD1C20E4
:100DA00000F014FA04464FF6FF7000EA04241D20F8
:100DB00000F00CFA0443214622A0FFF72DFA47F673
:100DC000A270844205D021461EA0FFF725FA01201B
:100DD00038BD0A2000F0FAF904464FF6FF7000EA29
:100DE00004240B2000F0F2F90443214618A0FFF779
:100DF00013FA42F24260844203D0214614A0FFF766
:100E00000BFA00250AE0154A02EB45025178134A15
:100E100012F8150000F08CFA681C85B2B12DF2D3DF
:100E20000020D5E7000C01400010014000140140F3
:100E300000200140000230008C8121420000244249
:100E4000BC0124424D49443A25780D0A00000000B7
:100E50004849443A25780D0A000000009C1E00080D
:100E60002DE9F04104460D46E11704EB917189101C
:100E7000A4EB810111B10120BDE8F081E91705EB78
:100E800091718910A5EB810109B10220F4E7204698
:100E9000E11704EB9171C1F38F072846E91705EBC1
:100EA0009171C1F38F060021FF2000F041FA042167
:100EB000E02000F03DFAF9B25A2000F039FAF1B220
:100EC0005B2000F035FAC7F30128042000EAA610E1
:100ED00040EA080841465C2000F02AFA0021E020A0
:100EE00000F026FA0020C7E710B5002400BF0AE092
:100EF000064A02EB44025178044A12F8140000F04A
:100F000017FA601C84B20E2CF2D310BD1C2000080E
:100F10002DE9F0410446002580268027072C19D2B0
:100F2000DFE804F0180406080C101400402511E056
:100F300018250FE018254026C0270BE0182540266D
:100F4000402707E01825A026402703E01825402663
:100F5000A62700BF00BF0021FF2000F0E9F9002113
:100F60007C2000F0E5F929467D2000F0E1F905211B
:100F70007C2000F0DDF931467D2000F0D9F93946BA
:100F80007D2000F0D5F9BDE8F081704729B1064A0F
:100F900052690243044B5A6104E0034A5269824396
:100FA000014B5A61704700000010024029B1064A07
:100FB00092690243044B9A6104E0034A92698243B6
:100FC000014B9A61704700000010024030B50021CB
:100FD0000022002400232D4D6D6805F00C0121B185
:100FE000042905D0082923D105E0294D056022E018
:100FF000274D05601FE0254D6D6805F47012234DE7
:101000006D6805F48034022505EB92421CB9214D30
:10101000554305600BE01D4D6D6805F400351DB1AD
:101020001C4D5543056002E0194D5543056002E033
:10103000174D056000BF00BF144D6D6805F0F0014D
:101040000909154D6B5C0568DD4045600F4D6D6805
:1010500005F4E061090A104D6B5C4568DD40856070
:101060000A4D6D6805F46051C90A0B4D6B5C45680B
:10107000DD40C560054D6D6805F44041890B074DA5
:101080006B5CC568B5FBF3F5056130BD001002402F
:1010900000127A0000093D0048000020580000209E
:1010A00008B501214FF49070FFF780FF4FF4005016
:1010B000ADF8000048208DF8030003208DF80200F1
:1010C00069461148FFF7A5FA4FF400510E48FFF7A3
:1010D0007EFB0820ADF8000010208DF80300694663
:1010E0000A48FFF796FA08210848FFF770FB064800
:1010F000406820F47000044948600846406840F4A5
:101100004010486008BD000000200140001401406C
:1011100010B5322000F0D4FB01200B4908600B49C8
:10112000C1F88C01322000F0CBFB00200849086098
:10113000322000F0C5FB00200649C1F8B40132207E
:1011400000F0BEFB10BD0000B4012442008022422A
:101150008C8122420000244270B500241848406867
:1011600020F47000164948600846406840F40000CA
:101170004860082515E0322000F0A2FB012011494B
:1011800008606006040E1048D0F8340108B1601CF5
:10119000C4B2322000F094FB00200A490860681EA7
:1011A000C5B2002DE7DC0648406820F47000044911
:1011B00048600846406840F440104860204670BDD2
:1011C000002001408C8122420000244270B5044678
:1011D000002500F023F8602000F054F8642000F0AF
:1011E0006FFB204600F04EF8642000F069FB00F031
:1011F0002FF8642000F064FB00F010F8612000F08C
:1012000041F8642000F05CFBFFF7A6FF0546FFF7FE
:101210007FFF00F01DF8284670BD000010B50120CA
:10122000094908600949C1F88C01322000F048FBE7
:10123000002005490860322000F042FB00200349ED
:10124000C1F88C0110BD0000B4012442008022428C
:1012500010B5002009490860322000F031FB012060
:101260000749C1F88C01322000F02AFB0120034914
:101270000860322000F024FB10BD0000B4012442BD
:101280000080224270B5044600261AE004F0800077
:1012900018B101202149086002E000201F490860C0
:1012A0006006040E322000F00BFB01201C49086090
:1012B000322000F005FB00201A49C1F88C01701C97
:1012C000C6B2082EE2DB1848406820F470001649C8
:1012D00048600846406840F400004860322000F052
:1012E000EFFA01200E490860322000F0E9FA0F48B9
:1012F000D0F8340108B1012500E00025002008499C
:1013000008600948406820F47000074948600846B2
:10131000406840F440104860284670BDB401244243
:101320008C812242008022420020014000002442A1
:1013300070B505460C460026FFF770FF6020FFF7EA
:10134000A1FF00B10126642000F0BAFA2846FFF799
:1013500099FF00B10126642000F0B2FA2046FFF7A1
:1013600091FF00B10126FFF773FF304670BD704753
:1013700010B500F001F810BD0CB5002001900090F0
:101380003348006840F480303149086000BF30487D
:10139000006800F4003000900198401C0190009813
:1013A00018B90198B0F5A06FF1D12948006800F490
:1013B000003010B10120009001E000200090009862
:1013C000012843D12348006840F0100021490860FB
:1013D0000846006820F0030008600846006840F0F6
:1013E000020008601A484068194948600846406889
:1013F00048600846406840F480604860084640689D
:1014000020F47C1048600846406840F4E8104860CA
:101410000846006840F08070086000BF0C48006813
:1014200000F000700028F9D00948406820F003005F
:10143000074948600846406840F00200486000BF25
:101440000348406800F00C000828F9D10CBD0000EA
:101450000010024000200240042808D14FF0E02193
:10146000096941F004014FF0E022116107E04FF0FB
:10147000E021096921F004014FF0E0221161704779
:101480007047000010B51348006840F00100114992
:10149000086008464068104908400E494860084600
:1014A00000680E4908400B4908600846006820F4AF
:1014B000802008600846406820F4FE0048604FF431
:1014C0001F008860FFF754FF4FF000600449086078
:1014D00010BD0000001002400000FFF8FFFFF6FE04
:1014E00008ED00E010B540F225511D4800F0DBF892
:1014F00010B31B4800F092F9C4B21A48008800F4F7
:101500000040C8B91748008800F4804060B10A2C38
:1015100003D000201349088020E01248008840F4DE
:1015200000401049088019E00D2C06D10D480088B4
:1015300040F480400B49088010E00A480088C0F35E
:101540000D0009490C5407480088401C05490880D3
:1015500008460088C72801DD0020088010BD000073
:10156000003801402C0000205C00002010B540F243
:1015700025511D4800F097F810B31B4800F04EF9B4
:10158000C4B21A48008800F40040C8B9174800885F
:1015900000F4804060B10A2C03D000201349088079
:1015A00020E01248008840F400401049088019E00B
:1015B0000D2C06D10D48008840F480400B4908806E
:1015C00010E00A480088C0F30D0009490C54074890
:1015D0000088401C0549088008460088C72801DDAE
:1015E0000020088010BD0000004400402E000020B4
:1015F0002401002010B540F225511D4800F053F899
:1016000010B31B4800F00AF9C4B21A48008800F46D
:101610000040C8B91748008800F4804060B10A2C27
:1016200003D000201349088020E01248008840F4CD
:1016300000401049088019E00D2C06D10D480088A3
:1016400040F480400B49088010E00A480088C0F34D
:101650000D0009490C5407480088401C05490880C2
:1016600008460088C72801DD0020088010BD000062
:101670000048004030000020EC01002021B18289A8
:1016800042F40052828104E082894DF6FF731A40D1
:10169000828170471AB1838A0B43838202E0838A76
:1016A0008B438382704770B50246002400230025D7
:1016B000002040F66A16B14200D100BFC1F34215C6
:1016C00001F01F03012606FA03F3012D02D19689CA
:1016D000334006E0022D02D1168A334001E0968A9B
:1016E00033400C12012606FA04F41688344013B174
:1016F0000CB1012000E0002070BDF0B503460024CD
:1017000000260025002040F66A17B94200D100BF2C
:101710001846C1F3421401F01F06012707FA06F527
:10172000012C01D10C3004E0022C01D1103000E07A
:1017300014301AB107682F43076002E00768AF430F
:101740000760F0BD2DE9F04786B005460E4600243F
:10175000A24600BFA1460027B08900B100BF2F46B6
:101760002C8A4CF6FF700440F08804432C82AC892C
:101770004EF6F3100440B08831890843718908435C
:101780000443AC81AC8A4FF6FF400440B089044367
:10179000AC8201A8FFF71AFC1F48874202D1DDF88E
:1017A00010A001E0DDF80CA0A88900F4004040B1D1
:1017B0000AEBCA0000EB0A1031684900B0FBF1F8EF
:1017C00007E00AEBCA0000EB0A1031688900B0FBA1
:1017D000F1F86420B8FBF0F004012009642101FB5A
:1017E0001089A88900F4004040B1322000EBC90004
:1017F000B0FBF1F000F00700044308E0322000EBFA
:1018000009106421B0FBF1F000F00F0004432C81BB
:1018100006B0BDE8F0870000003801400146888826
:10182000C0F30800704700BFFEE700BF704700002C
:1018300010B56FF00400FFF70FFE0A4800680A4970
:10184000B0FBF1F0094908700846007800EB400150
:10185000C1EBC0104FF6FF7101EAC00004490880D7
:1018600010BD00000C00002000127A0022000020B1
:10187000240000200146114A12884A434FF0E02319
:101880005A6100229A611A46126942F001021A61F5
:1018900000BF4FF0E022106900F001021AB100F41D
:1018A0008032002AF5D04FF0E022126922F00102C6
:1018B0004FF0E0231A6100229A6170472400002053
:1018C0000146114A12784A434FF0E0235A61002240
:1018D0009A611A46126942F001021A6100BF4FF084
:1018E000E022106900F001021AB100F48032002AEF
:1018F000F5D04FF0E022126922F001024FF0E02310
:101900001A6100229A6170472200002000BF054A38
:10191000128802F04002002AF9D0C2B2014B1B1D0E
:101920001A8070470038014008B500BFFFF780FFFC
:101930004FF4612000F082F9FFF740F84FF6FF7096
:101940004FF48C73F022002100900846FEF7CBFF85
:10195000FEF742FF02E0C820FFF78CFFFFF7A0F977
:101960000028F8D100F086F800F098F800B5094991
:101970004FF42862C868002100F072F805494FF45E
:1019800028428868002100F06BF8012001490874A2
:1019900000BD0000340000202DE9F041064600247F
:1019A000A0461A48007C10B91849086880471EB93B
:1019B0004FF0FF30BDE8F081C6F34F1506F01F0071
:1019C00008B1681C85B240F23F541AE00F48C06865
:1019D00030F8140020B908F101001FFA80F801E086
:1019E0004FF00008A8450BD1002705E00748C06864
:1019F000E11920F811507F1CAF42F7D36001D9E7FD
:101A0000641E002CE2DA4FF0FF30D3E734000020F0
:101A10000022002106E00948C06830F8110000B13A
:101A2000521C491CB1F5A86FF5D3642050434FF404
:101A3000A863B0FBF3F0C0B2704700003400002090
:101A400070B505462846FFF7A7FF0446601C08B995
:101A5000002070BD014880682044FAE7340000206F
:101A600030B5034601E003F8011B141EA2F1010288
:101A7000F9D130BD70B50F2404250021FF20FFF7F8
:101A800057FC2946D320FFF753FC0121FF20FFF725
:101A90004FFC21461120FFF74BFC70BD08B54FF0FD
:101AA000000AD3460024002500200090002780462D
:101AB0008146FFF75BFF4FF40040FFF7C1FF564937
:101AC000086005E055A0FEF7A7FBC820FFF7D2FE8F
:101AD000514800680028F5D0FFF706FA8021084633
:101AE000FFF7BEF996E00020FEF792FE0646012EB3
:101AF0000DD10AF1010000F0FF0A07209AFBF0F176
:101B000000FB11A000F0FF0A5046FFF701FA032E78
:101B10000DD10BF1010000F0FF0B05209BFBF0F154
:101B200000FB11B000F0FF0B5846FFF7A3F80027A9
:101B300000BF3E4800680028FBD1009081463FE08E
:101B40002FE000BF3A4800680028FBD03948806881
:101B50004FF4807101FB09812F4A126850547F1C99
:101B600008F101001FFA80F800BF31480068012821
:101B7000FBD000BF2E4800680028FBD02D488068AD
:101B80004FF4807101FB0981234A126850547F1C75
:101B900008F101001FFA80F800BF254800680128FD
:101BA000FBD0254800680028CBD10098874207D099
:101BB000B8B200904FF0000809F101001FFA80F957
:101BC000B9F1800FBCDB002422E000251DE02302D8
:101BD0004FF0020C0CFB0533DFF83CC0DCF800C012
:101BE0001CF803C023025B1C4FF0020E0EFB0533F2
:101BF000DFF824E0DEF800E01EF803304CEA0322B0
:101C0000A1B2A8B2FEF761FE6D1C802DDFDB641C63
:101C1000802CDADB67E70000080000204D414C4CC7
:101C20004F4320444154410A0000000018812242E1
:101C300010812142001001403801244210B592B0B9
:101C40000446012144F20400FFF7B0F901210846DF
:101C5000FFF79CF94FF40070ADF8440003208DF8B5
:101C6000460018208DF8470011A92F48FEF7D1FC37
:101C70004FF48060ADF8440004208DF8470011A9AE
:101C80002948FEF7C6FC25208DF8300003208DF88A
:101C900031008DF8320001208DF833000CA8FEF7DA
:101CA000B1FF0D940020ADF83800ADF83A00ADF862
:101CB0003C00ADF840000C20ADF83E000DA91B48DB
:101CC000FFF740FD012240F225511848FFF715FDAE
:101CD00001211648FFF7D2FC1548FEF7D5FB00207E
:101CE0000B90089009901148001D0190002007906A
:101CF00005904FF400500A90802006900020049038
:101D0000102003900B48029001A90948FEF762FCDD
:101D1000012280210548FFF7BDFC00210448FEF7A1
:101D2000A7FB12B010BD00000008014000380140C0
:101D30004400024000000020FF002CFF2EDFFF01C6
:101D40003C321100090204D813E514482C0C3378F6
:101D50003A333BFB3E0043111610399235DA221A12
:101D600037C3230034C0361A068807C00D870E41DA
:101D70004C0048005B0042034A81219924402538E9
:101D800026825C00630046000C3C617062807C052A
:101D9000208028306C006D806E007002719473C1D9
:101DA0003D345A5712001711187519011A97323617
:101DB000030F37404FCA50A85A236D006D38FF00FB
:101DC000E57FF9C04124E01476FF33A04220431898
:101DD0004C0087D5883FD703D910D382C808C98063
:101DE0007C007D007C037D487D487C087D207D1043
:101DF0007D0E9000910E911A9131915A91699175D1
:101E0000917E9188918F919691A391AF91C491D732
:101E100091E891209200930693E393059305930034
:101E20009304930093009300930093009300930016
:101E30009600970897199702970C97249730972840
:101E4000972697029798978097009700C3EFA40072
:101E5000A800C511C651BF80C710B666B8A5B76443
:101E6000B97CB3AFB497B5FFB0C5B194B20FC45C41
:101E7000C0C8C1968C00863D50005190522C530032
:101E8000540055885A905B2C5C05D302C3ED7F004B
:101E9000DA09E51FE167E000DD7F0500FF002CFFA8
:101EA0002EDFFF013C321100090204D813E514486B
:101EB0002C0C33783A333BFB3E0043111610399219
:101EC00035DA221A37C3230034C0361A068807C011
:101ED0000D870E414C0048005B0042034A81219966
:101EE0002440253826825C00630046220C3C617049
:101EF00062807C05208028306C006D806E0070024E
:101F0000719473C13D345A57124017111843190088
:101F10001A4B320937C04FCA50A85A236D003D38BA
:101F2000FF00E57FF9C04124E01476FF33A0422092
:101F300043184C0087D5883FD703D910D382C808EF
:101F4000C9807C007D007C037D487D487C087D2025
:101F50007D107D0E9000910E911A9131915A9169E8
:101F60009175917E9188918F919691A391AF91C433
:101F700091D791E891209200930693E393059305FE
:101F800093009304930093009300930093009300B5
:101F900093009600970897199702970C972497300B
:101FA0009728972697029798978097009700C3EDF8
:101FB000A400A800C511C651BF80C710B666B8A559
:101FC000B764B97CB3AFB497B5FFB0C5B194B20FE5
:101FD000C45CC064C14B8C00863D500051C8529611
:101FE0005300540055005AC85B965C00D302C3ED01
:101FF0007F00DA09E51FE167E000DD7F0500FF00F3
:10200000DA10D703DF0033803C40E1770000FF01A6
:10201000E014E177E51FD703DA10E000FF00DA09EA
:10202000D703DF0233A03C00E167FF01E000E100DD
:10203000E500D700DA00E000FF0124202518266023
:10204000FF012434251C2600FF01243E253826816B
:10205000FF01244825402681FF012458255026925F
:1020600030313233343536373839414243444546CE
:1020700040305800303132333435363738396162C8
:102080006364656640307800A820000800000020E6
:102090005C0000006C010008042100085C000020C6
:1020A0003CBB0000880100080000000000000000A8
:1020B0000000000000A24A04000000000000000030
:1020C00001020304060708090100000000000000E7
:1020D0000000000000000000000000006D19000872
:1020E000111A0008B4020020B4AA00200000000069
:1020F00000000000010203040102030406070809AE
:0421000002040608C7
:0400000508000131BD
:00000001FF
