:020000040800F2
:10000000681D002019F50008FFFFFFFFFFFFFFFF3D
:10001000FFFFFFFFFFFFFFFFFFFFFFFFFFFFFFFFF0
:10002000FFFFFFFFFFFFFFFFFFFFFFFFFFFFFFFFE0
:10003000FFFFFFFFFFFFFFFFFFFFFFFFFFFFFFFFD0
:10004000FFFFFFFFFFFFFFFFFFFFFFFFFFFFFFFFC0
:103F200052444900FFFFFFFFFFFFFFFFFFFFFFFFBE
:103F3000466C617368425000FFFFFFFFFFFFFFFF09
:103F4000466C617368444C00FFFFFFFFFFFFFFFFFB
:103F50004A466C61736800FFFFFFFFFFFFFFFFFF32
:103F600047444200FFFFFFFFFFFFFFFFFFFFFFFF90
:103F7000FFFFFFFFFFFFFFFFFFFFFFFFFFFFFFFF51
:103F8000FFFFFFFFFFFFFFFFFFFFFFFFFFFFFFFF41
:103F9000FFFFFFFFFFFFFFFFFFFFFFFFFFFFFFFF31
:103FA000FFFFFFFFFFFFFFFFFFFFFFFFFFFFFFFF21
:10480000681D002019F50008DB680008436B0008EC
:104810000000000000000000000000000000000098
:10482000000000000000000000000000DF91000810
:104830000000000000000000617A000821F200087A
:104840001FA700085FA90008ABBB0008EFBF000866
:10485000F7D10008BBD3000815EF000867F1000886
:10486000FFF400080BF500083DF500083FF50008CF
:1048700041F5000843F5000845F5000847F5000834
:1048800049F500084BF500084DF500084FF5000804
:1048900051F5000853F5000855F5000857F50008D4
:1048A00059F500085BF500085DF50008BDBD00087E
:1048B000DDD600085FF5000861F50008A3AA00082E
:1048C000FFFFFFFFFFFFFFFFFFFFFFFFFFFFFFFFF8
:1048D000FFFFFFFFFFFFFFFFFFFFFFFFFFFFFFFFE8
:1048E000FFFFFFFFFFFFFFFFFFFFFFFFFFFFFFFFD8
:1048F000FFFFFFFFFFFFFFFFFFFFFFFFFFFFFFFFC8
:1049000000000000000000000000000000000000A7
:104910004A2D4C696E6B204F422D53544D33324615
:104920003037322D436F727465784D20636F6D7030
:10493000696C6564204A616E20203720323031393D
:104940002031343A30393A333700436F7079726925
:1049500067687420323030332D3230313420534583
:10496000474745523A207777772E736567676572B8
:104970002E636F6D000000000000000000000000CA
:10498000FFFFFFFFFFFFFFFFFFFFFFFFFFFFFFFF37
:10499000FFFFFFFFFFFFFFFFFFFFFFFFFFFFFFFF27
:1049A000FFFFFFFFFFFFFFFFFFFFFFFFFFFFFFFF17
:1049B000FFFFFFFFFFFFFFFFFFFFFFFFFFFFFFFF07
:1049C000FFFFFFFFFFFFFFFFFFFFFFFFFFFFFFFFF7
:1049D000FFFFFFFFFFFFFFFFFFFFFFFFFFFFFFFFE7
:1049E000FFFFFFFFFFFFFFFFFFFFFFFFFFFFFFFFD7
:1049F000FFFFFFFFFFFFFFFFFFFFFFFFFFFFFFFFC7
:104A000008B4024B9C4608BC6047C046ED05002038
:104A100038B4002B1FD104005034783000780028BF
:104A200001D0636A17E0206A00280CD0C500E46951
:104A30006419083C2568AA4201D363680BE0083C6E
:104A4000401EF7D107E0C0239B032068AB4A904289
:104A500001D1F0231B04CB600120087431BC7047E6
:104A6000F8B50E0004005034002332002100FFF797
:104A7000CFFF00220221200001F068FA0500207D0E
:104A80000106022001F0BFFA07003100052001F005
:104A9000BAFA38436168A94206D065600600290069
:104AA000042001F0B0FA30430500207D00061021FB
:104AB0000143022001F0A7FA010029430800F2BDDA
:104AC000F8B50E0004005034002332002100FFF737
:104AD0009FFF00220221200001F038FA0500207D0E
:104AE0000106022001F08FFA07003100052001F0D5
:104AF0008AFA38436168A94206D06560040029003B
:104B0000042001F080FA2043002802D50020C04391
:104B1000F2BD0020F2BDF8B50024BE4E356AC8359E
:104B20000021072001F0C2FA01276946072001F0A1
:104B3000BDFA0098C00C384003D1306A281AF4D569
:104B4000E4432000F2BDFCB583B007000E003C003A
:104B500050340A9DA80001D5012020762807000FB7
:104B600002902068654988420BD1207E002801D040
:104B7000012200E0039A029882403100380001F0DF
:104B800025FBFF231B042B40320021003800FFF7D8
:104B90003FFF0B98019002980090049B039A31000C
:104BA000200001F048F90021217605B0F0BDF6B5EE
:104BB00083B007001E003C00503401250A98810094
:104BC00000D525760107090F01910A460121914080
:104BD0007A22BA5C002A36D0039AB24B9A4232D17A
:104BE000042977D10499012974D1AF493800FFF71E
:104BF00037FF00281DD40021072001F057FA69462D
:104C0000072001F053FA70780002B17809040143DB
:104C1000F07800060843A54A02400098F0210903F5
:104C200001401143072001F0EEF9002804D501F0FE
:104C3000DEF90020C0435CE001F0C4F9002103204C
:104C400001F034FA44E0039AB94B9A4242D1042964
:104C500040D1049901293DD1300001F00AFC0090B7
:104C6000B3493800FFF72CFF0028E2D10099072054
:104C700001F0C9F90028DAD401F0A4F9009840073E
:104C800022D5022001F005FE0021032001F00EFADA
:104C900000281DD05F4E306A9621C900401801904F
:104CA000A44F642001F0F5FD6946002001F0FEF9F3
:104CB000002804D1009838409F49884208D00198C4
:104CC000316A401AEDD503E00021032001F0EEF92E
:104CD00001200EE0FF231B04034021003800FFF7F2
:104CE00097FE019800903300049A0399200001F088
:104CF000F4F80021217605B0F0BD0000FF00010EA0
:104D0000F2B582B017001C000100503101916649D4
:104D1000FFF7A6FE002807D40021072001F0C6F9FE
:104D20006946072001F0C2F90298007801F0C8FD39
:104D3000009D000202210143062001F064F9B64EF5
:104D400035402900072001F05EF90198FFF7E3FEE6
:104D5000002810D4009D0021062001F0A7F9390099
:104D6000062001F0A3F92E403100072001F04BF995
:104D70000198FFF7D0FE002808D40298401C02904A
:104D80003F1D641ED0D1002003B0F0BD0020C04301
:104D9000FAE7F2B582B017001C007A21415C0029C5
:104DA00004D00299FFF7ACFF06002FE03E49FFF761
:104DB00057FE002802D50020C04328E00298017861
:104DC000052001F020F90021042001F06FF90026F0
:104DD0005A48056AC8356946042001F067F9009809
:104DE000C00305D45548006A281AF4D5F6430DE0EF
:104DF0000021062001F05AF93900032001F056F98C
:104E00000298401C02903F1D641ED7D1300003B0B1
:104E1000F0BD000078010020F2B582B017001C0040
:104E20000100503101912049FFF71AFE002807D4F4
:104E30000021072001F03AF96946072001F036F910
:104E40000298007801F03CFD009D0002032101431F
:104E5000062001F0D8F8704E35402900072001F0F7
:104E6000D2F80198FFF757FE00280CD4009D39684E
:104E7000062001F0C8F82E403100072001F0C3F8E9
:104E80000198FFF748FE002808D40298401C0290C1
:104E90003F1D641ED4D1002003B0F0BD0020C043EC
:104EA000FAE70000FCED00E0F0ED00E0FFFFF0FFAE
:104EB000F2B582B017001C007A21415C002904D0B1
:104EC0000299FFF7A9FF06002EE09349FFF7C8FDFE
:104ED000002802D50020C04327E03968062001F0F1
:104EE00092F802980078802149020143052001F0E0
:104EF0008AF80021042001F0D9F800260F48056A3D
:104F0000C8356946042001F0D1F80098C00305D4E3
:104F10000A48006A281AF4D5F64305E00298401CB6
:104F200002903F1D641ED8D1300003B0F0BD0000D8
:104F30000CED00E0FF0F0000770400007801002076
:104F4000F0B583B007003E00503600247249FFF7E9
:104F500087FD05007A20385C002825D0002D1ED45E
:104F60000021042001F0A2F8050001A9072001F0AA
:104F70009DF80095050002A9072001F097F80100AF
:104F80002943009D29430D0009D40198800302D5CF
:104F90007A203C5404E002980403E40F00E0E44368
:104FA0007A20385C002833D10021042001F07EF8FB
:104FB00004002C4301A9042001F078F8204315D502
:104FC0000020706054493800FFF74AFD05000021B9
:104FD000042001F06BF804002C4301A9042001F027
:104FE00065F8204302D50020C04312E00198000379
:104FF0000BD54A49042001F006F80021042001F0F5
:1050000055F801A9042001F051F801988403E40F38
:10501000200003B0F0BD0000FFFFF7FFF1B582B044
:10502000044679346078002842D03B490298FFF763
:1050300017FD0021072001F039F86946072001F02B
:1050400035F800980103C90F07D1C0218902014337
:1050500000910099072000F0D6FF0021072001F001
:1050600025F82F4F3D6AC83501A9072001F01EF829
:10507000002802D50026F64308E001980603F60F43
:1050800002D1386A281AEFD501980090002E0CD171
:10509000002060700098234901400091072000F033
:1050A000B2FF0021072001F001F8607800282ED11E
:1050B00019490298FFF704FD2078C000174D0543F9
:1050C0002900072000F09FFF01F040F8144F3E6ACE
:1050D000B61C01A9072000F0E9FF002802D5002036
:1050E000C04306E001998803C00F02D1396A711AE2
:1050F000EFD506002078002809D008208543290034
:10510000072000F080FF0021072000F0CFFF0020E3
:105110002070300003B0F0BDF0ED00E003005FA0B0
:1051200078010020FFFFFCFFF0B58BB00400CA0738
:10513000D20F04928807C00F69460873206DCA49D0
:10514000884218D1200001F067F8002802D500201D
:10515000C04387E1200001F059F8C4492000FFF75F
:10516000AFFC002807D40021072000F04CFF0028E6
:1051700001D100F027FF6846007B002873D0684605
:1051800000210173BA492000FFF79AFC80202058C3
:10519000883000680125284202D0A843019005E02C
:1051A00000F0D4FF01A9032000F080FF0199303105
:1051B000052000F028FF00F0C9FF01A9032000F03E
:1051C00075FF019800284ED00021C94388424AD07B
:1051D000A8430190014610392000FFF771FC00211F
:1051E000072000F063FF06A9072000F05FFF019988
:1051F0000C39052000F007FF0021072000F056FFC2
:1052000006AE311D072000F051FF01990839052035
:1052100000F0F9FE0021072000F048FF31000831BE
:10522000072000F043FF0199091F052000F0EBFE65
:105230000021072000F03AFF0C363100072000F073
:1052400035FF06988B4988420DD107988A498842D4
:1052500009D108988949884205D109988849884226
:1052600001D16846057387492000FFF729FC1F21FB
:10527000072000F0C8FE844F39002000FFF7F0FB44
:105280000021042000F012FF6946072000F00EFF05
:1052900002A9072000F00AFF00200099890303D427
:1052A0000299090300D50120260079366946097B59
:1052B000002956D0002800D099E0B078002827D1E6
:1052C00072492000FFF7CCFB0021042000F0EEFE25
:1052D00005A9042000F0EAFEFF25059929430420D2
:1052E00000F091FE0021042000F0E0FE01A904205E
:1052F00000F0DCFE01980540280001F0AEF80190B6
:1053000008200199401AB0700599042000F07BFE36
:1053100039002000FFF7A4FB02985D49014080207E
:105320004002084302900146072000F06CFE0098FE
:1053300080B2009000200490564C00980107C90FDD
:1053400007D008218843009001462143042000F043
:105350005AFE00980721884300900443210004204E
:105360004DE0012500284DD0B94F00983840054345
:105370000095484C29462143042000F044FE04983F
:1053800000282DD00098022101430091009921436B
:10539000042000F038FEAF48056A6D1D002104208E
:1053A00000F084FE6946042000F080FE019880032E
:1053B00003D4A848006A281AF4D5009807400820AA
:1053C0003843009001462143042000F01CFE009861
:1053D00002218843009004432100042000F013FEC2
:1053E0000298B54901400291072000F00CFE029C92
:1053F0000121062000F007FEB0492140072000F0FF
:1054000002FE18E00498C000B949014301910498D4
:105410000099C9080D40A84203D00199042000F06A
:10542000F2FD01980221884301900146042000F01A
:10543000EAFD00F0C7FDAF480068002801D0FFF783
:10544000DFFA00F0BFFD0021032000F02FFE6946C7
:10545000097B7170C90701D50121F170002801D4C1
:10546000049931700BB0F0BDFF00010E50EF00E069
:1054700008ED00E04A4C494E4B4D4F4E48414E44DA
:105480004C45520030ED00E0F0ED00E020ED00E092
:10549000FFFFF3FF00005FA0F0B587B00400206DB0
:1054A0009549884218D1200000F0B6FE002802D5A8
:1054B0000020C043C9E0200000F0A8FEB44920004D
:1054C000FFF7FEFA002807D40021072000F09BFD1B
:1054D000002801D100F076FD26007A36AD4D3078F7
:1054E000002800D184E0AC492000FFF7B9FA002180
:1054F000042000F0DBFD04A9042000F0D7FD04988F
:10550000C0B2049029002000FFF7AAFA002807D4AF
:105510000021072000F0CAFD6946072000F0C6FD03
:1055200000988021C902014300910099072000F0F2
:105530006AFD684614210173012305AA03A920000E
:10554000FFF7DEFBAF4F0598384001900146049A03
:105550000120082375785B1B98401018000208434F
:105560000190012301AA03A92000FFF755FC009D2B
:105570000121062000F047FD50492940072000F096
:1055800042FD0021072000F091FD324D2E6AC83601
:1055900002A9072000F08AFD002802D50020C043A0
:1055A00008E002990803C00F02D1296A711AEFD5E9
:1055B00002990091050041D40098A349014000914F
:1055C000072000F020FD012301AA03A92000FFF716
:1055D00097FB019807400598FF21090201403943D4
:1055E0000191012301AA03A92000FFF715FC25E082
:1055F00029002000FFF764FA9449072000F003FD1A
:105600009349072000F0FFFC00F0A0FD114D2C6A2B
:10561000A41C02A9072000F049FD002802D50020A3
:10562000C04306E002998803C00F02D1296A611ABB
:10563000EFD505002E49072000F0E5FC00F0C2FC84
:105640000021032000F032FD280007B0F0BD00006B
:10565000FFFF00007801002002B582B069460F22EA
:105660000A70012302AAFFF723FC03B000BD70B546
:1056700082B00400774DC04E00290ED000F0B0FC7F
:10568000002060653068A84214D26946012000F00D
:105690000DFD0099012081430AE03068A84209D23B
:1056A0006946012000F002FD00980121014301201C
:1056B00000F0A9FC73BD0000FFFFFAFFFFFFF7FF3A
:1056C00001290AD9091F0CD0091F04D008390AD0B2
:1056D000703904D009E0A9487047A94870471F20D5
:1056E000704703207047012070470020704700007A
:1056F00003005FA040120020FF00010EF0B583B050
:1057000005000F002C00503420689E4988423CD18F
:10571000002001909C492800FFF7D2F9002807D407
:105720000021072000F06FFC002801D100F04AFCA6
:10573000964E0023320021002800FFF769F900206F
:10574000009001AB01223100200000F0BFFB019866
:10575000C004840D641C01980001450C6D1C0126D9
:105760000320019A0240921C012191403E60387151
:10577000880000F0DBFEF871280000F0D7FE787199
:10578000200000F0D3FEB8713E74002003B0F0BDDD
:1057900050EF00E0F0ED00E020ED00E0F0B583B068
:1057A00005002C00503420687649884201D0002042
:1057B00026E0B04E0023320021002800FFF728F930
:1057C0000020009001AB01223100200000F07EFBA0
:1057D000012701984008384012D0C14E0023320002
:1057E00021002800FFF714F90020009001AB0122EE
:1057F0003100200000F06AFB0198000C07403800DF
:1058000003B0F0BDFF00FFFF38B5046D5D4DAC4245
:1058100017D1049CA4000919CC79A24020248979CD
:10582000611A8B4013431C00AE49FFF749F9002869
:1058300007D42100072000F0E6FB002801D100F08A
:10584000C1FB002032BD0000FFFFFBFF0F005FA087
:105850000D005FA0A6AE0000F5B585B00E00842A4D
:1058600002D20020C04385E03000503001900598FE
:1058700040690290059880690490842200213000DC
:1058800000F014FE059800680090002801D19648A9
:1058900000900098000E954CFF2808D0032801D0F6
:1058A0000E2804D100983749884200D0904C0598C2
:1058B000007B694608730598407B01061BD50021D3
:1058C000820701D580218903420703D50A00802180
:1058D000C9031143020703D50A00802109041143BB
:1058E000800603D40800802149030143301D01676D
:1058F0007820012131540598807B002804D020288D
:1059000002D201248440641E351D0498042809D362
:10591000029800F0AEFDE8660298001DA866E96EE8
:1059200001F00EF937002C378020400000F0FEFD1A
:105930002021785420370520787036606D486860E3
:105940006D4828600020E86028616C49A9600199D1
:105950006A46127B0A75019901228A7501998C6049
:105960000199009A0A600199486078360598B060FC
:105970000698843807B0F0BD3C1200203700008044
:1059800001000080FF00010E84ED00E080ED00E0EA
:1059900030B5C5B005000221684601F0ABF9684694
:1059A000018835A801F0A6F968460088042804D3C8
:1059B00035A800F05EFD040000E04B4C9022002171
:1059C00001A800F073FD019401A8012101710021DB
:1059D0004171017325A805904AA00890402225A98D
:1059E00001A8FFF739FF01210598FFF740FE642D5C
:1059F00012D0652D14D06E2D16D06F2D18D0792DA4
:105A00001AD07A2D1CD07B2D1ED07C2D20D0822D3B
:105A100022D0832D24D026E001A801F089FA22E0CB
:105A200001A801F0FDF91EE001A801F03FFB1AE01A
:105A300001A801F067FB16E001A801F089FB12E064
:105A400001A801F09CFB0EE001A801F0A1FB0AE017
:105A500001A801F0ADFB06E001A801F0B2FB02E0F5
:105A600001A801F0E9FB00210598FFF700FE45B011
:105A700030BD000078ED00E070B582B00669012409
:105A800001207C21715C002929D01D493000FFF7DD
:105A900017F805000021072000F008FB010029434A
:105AA0000D006946052000F001FB284316D400983C
:105AB000C00C204003D07C36002030700EE00098EF
:105AC000000C04400AD100988021490201430720BC
:105AD00000F099FA6946052000F0E8FA002076BD4A
:105AE00014ED00E074EF00E0FF000003FF0300008E
:105AF000FF0F00009D570008FD56000809580008D8
:105B0000FCED00E000000000DD680008036A00080A
:105B1000934D0008B14E000829510008995400081F
:105B20001D500008414F00080000000059560008B1
:105B300059580008474B0008AF4B00080000000010
:105B4000C156000800000000000000000000000036
:105B50006F560008795A0008F4B584B005000E00AD
:105B60001F0000200290B80701D101200290287E7A
:105B7000421E9241D20F0221280000F0E7F90400F2
:105B8000287D0106022000F03EFA00903100052039
:105B900000F039FA009908436968A14206D06C60A8
:105BA00005002100042000F02EFA2843002856D1D9
:105BB00000F0CCFA002852D10498022847D3441EA2
:105BC0000A9E0298002826D0002E07D0F068B168FF
:105BD000401A844200D82000009000E00094002584
:105BE0003900072000F062FA002836D13F1D6D1CF5
:105BF00000988542F4D3002E09D0B068009940186F
:105C0000B060F168884202D330003168884700985C
:105C1000241AD9D11BE001A9072000F047FA002877
:105C20001BD101983870010A7970010CB970000E0F
:105C3000F8703F1D002E08D0B068001DB060F168FC
:105C4000884202D3300031688847641EE3D101A93D
:105C5000032000F02BFA002804D000F0C8F900203F
:105C6000C04304E00199380000F0EEFB049805B051
:105C7000F0BDF5B583B00E001C00007E421E9241BF
:105C8000D20F0A9F3900039800F060F905000398CD
:105C9000007D0106022000F0B6F9009031000520D9
:105CA00000F0B1F90099084303994968A94208D066
:105CB00003994D6000902900042000F0A4F9009998
:105CC0000843002835D100F041FA002831D104986A
:105CD000022828D3451E0120B840029068460321BF
:105CE000C91B017001A9072000F0E0F9002802D0CB
:105CF00000F07DF91DE001986A4612783240D1002B
:105D0000C840019001982070641C002F03D00198B6
:105D1000000A2070641C0398007E002801D10298BC
:105D200036186D1EDED101A9032000F0BFF900284E
:105D300002D00020C0430FE001980321C91B31406D
:105D4000C900C840019001982070641C002F02D047
:105D50000198000A2070049805B0F0BDF3B583B037
:105D600015001C000A9F012F01D1924804E0022F68
:105D700001D1914800E0012001900398007E421E6D
:105D80009241D20F7910039800F0E0F806000398D2
:105D9000007D0106022000F036F9009004990520EC
:105DA00000F031F901000098014303984068B042C7
:105DB00009D00398466000913100042000F023F9D7
:105DC00001000098014300290CD1A00710D1042F35
:105DD0000ED12168072000F016F9241D002804D5F3
:105DE00000F005F90020C04323E06D1EF1D119E059
:105DF0002178022F0CDB0A00607801021143032F87
:105E000006DB0A00A0780004E1780906014311438B
:105E100001984143072000F0F6F80028E0D4E41987
:105E20006D1EE5D100F0CEF80021032000F03EF910
:105E3000002005B0F0BDF9B581B00D001600807DE1
:105E4000002802D10020C0433EE0002708980890B7
:105E5000099809900BE02000089988400199097E73
:105E6000002900D12D18029908180290361B002E27
:105E700029D001988068A8430899C840401C01991E
:105E8000097E002901D0340003E03400864200D9A5
:105E900004000898022808DB09980090029B220061
:105EA00029000198FFF758FE06E00090029B2200AF
:105EB00029000198FFF7DDFE002801D5070002E068
:105EC0003F18A042C7D0380003B0F0BD10B582B073
:105ED000049C0094FFF740FE16BDF9B583B00D0099
:105EE000160000270A980A9001200A99884001901C
:105EF0000CE03F190A99200088400399097E002987
:105F000000D12D18049908180490361B002E1AD0C1
:105F100003988068A8430A99C840401C0399097EE9
:105F2000002901D0340003E03400864200D9040087
:105F300001980090049B220029000398FFF70EFFB0
:105F40000028D6D50700380005B0F0BD78B4036846
:105F50001A4CA34201D1012300E0002380256D04E7
:105F6000C468E60201D48225ED05260203D52E0081
:105F700080252D053543660203D52E008025ED04CE
:105F80003543A60203D52E008025AD0435432403F6
:105F900005D5007C002802D12800094D0540002BC2
:105FA00003D128008025AD0505432943100108438E
:105FB00072BC70470101010101000100FF00010EE8
:105FC000FFFFFFF380B56846FF214170002101709B
:105FD000082300AA921C6946401C01F064FC01BD24
:105FE00000B583B0754830236A46010006E000B56D
:105FF00083B0724830236A4601000831103001F046
:1060000052FC03B000BDF0B58FB0002200240B0C91
:106010004B401D0A5D402B096B409D085D4003917C
:106020006B086B40D907C90F03AB1971644F3E6A07
:106030006436644D69462818007A08704A7009E091
:1060400084235B0005AA290010312800343001F0B8
:106050002AFC641C0D2301AA69462800603001F067
:1060600022FC01A840784007400F012808D12123D5
:1060700001AA03A96835280001F015FC002013E0EF
:1060800002280CD0042802D1FFF7AAFF05E0022C59
:1060900003DA4D4800780028D2D0002003E0386AA7
:1060A000301AD7D50120C0430FB0F0BDF2B58EB085
:1060B0000021002502AA1171424E01AA305C107025
:1060C00051703F48076A643709E084235B0004AAE3
:1060D000310010313000343001F0E5FB6D1C0D2330
:1060E0006A4601A93000583001F0DDFB684640786F
:1060F0004407640F012C13D1C006840F21236A4684
:1061000002A95A36300001F0CEFB0E98002804D0C8
:106110000098800004430E98046000200FB0F0BD8A
:10612000022C0DD0042C02D1FFF75AFF05E0022DFE
:1061300003DA254800780028C7D00020C043EDE7E7
:106140001F48006A381ACAD50120F7E780B5002138
:106150000720FFF7ABFF02BD00B58BB019488423C1
:106160005B0001AA01001031343001F09CFB69464C
:106170000020FFF79BFF002811D469460120FFF79C
:1061800095FF0098B22101400BD0FFF729FF694627
:106190000120FFF78BFF0098A021014001D00120D2
:1061A00009E0A021C90500910120FFF72CFF401E46
:1061B0008041C043C00F0BB000BD00009002002022
:1061C00078010020A8020020601B0020F8B4030022
:1061D0008818401E1F22D24311400240501A420923
:1061E000521C49090124C9B2C8081D182C20285C7A
:1061F00001264F077F0FBE4006432C352E70491CE9
:10620000521EF0D14E331C70F1BC704700B52021F6
:106210002C3001F00BFC00BDF1B588B04E30007899
:10622000002800D1B8E008984E300021017008988D
:106230008168080000D1AFE008980068884700280E
:1062400000D1A9E008984268100007D008991831D9
:10625000089800689047002800D59AE008980169DE
:10626000080005D0089800688847002800D590E00D
:106270000020039008980190012405E00398401C39
:1062800003900198001D019003980899896988423C
:1062900076DA0198007F022803D0032801D0042871
:1062A000ECD10198C07F08994D310978401A0490CB
:1062B000002008994C310978019A527F8A4200D215
:1062C000881A00210291049901228A400692012134
:1062D0008140059118E00898C66830000AD00398FC
:1062E00000902B00029A0899183108980068B0476E
:1062F00000284ED46D1C0198817F01208840854282
:10630000E9DB0298401C029002990198427F01202B
:1063100090408142B2DA08460499884008994C318D
:106320000A7801219140491E014000220598012868
:10633000E7DB03460800069D012D0CDBC608089F1D
:10634000BE192C36367847077F0F3E41264002D1D2
:10635000401C6D1EF2D1921910D10198407F049D0E
:1063600045190120A840081808994C310D780121E1
:10637000A940491E01405B1EC3D0DBE70025BAE7F8
:1063800008984169080007D00898006888470028E5
:1063900002D50020C04300E0002009B0F0BD38B4B1
:1063A000012100220368001D002B0BD00468001D92
:1063B0000C4202D04D466D1E64192260241D1B1F25
:1063C000F0D0FAE732BC704701680A060B0A1B06D8
:1063D0001B0A13430A02120E12021A43090E11433A
:1063E000016070470106020A1206120A0A430102FE
:1063F000090E09021143000E08437047CA088218AB
:106400004807400F9107C90E4118032082431068C6
:10641000002906D0C840030050682022511A884045
:106420001843704702681170090A5170921C02608B
:10643000704702681170090A5170090A9170090ABF
:10644000D170121D026070470170090A4170090A7B
:106450008170C01C090A01707047010006D000203D
:1064600001E04908401CCA07FBD570470020C04323
:1064700070470178427812020A4381780904114377
:10648000C07800060843704718B4012A0BDB0300EC
:10649000401C0C00491C1B782478A34201D0012029
:1064A00002E0521EF3D1002012BC7047012A03DB28
:1064B0000170401C521EFBD1704778B403000020CD
:1064C000002480252D0601E03100641C294202D100
:1064D0004E00B342F8D2002C09D440008B4203D3C3
:1064E0005B1A0500012028434908641EF5D5002ADF
:1064F00000D0136072BC704780B56A46FFF7DDFFBD
:10650000009802BD80B50022FFF7D7FF02BD80B51D
:10651000002807D5002243421800FFF7CEFF0100F4
:10652000484202BD0022FFF7C8FF02BD002101E082
:10653000491C4000002800D4FAD11F20401A70479F
:106540000278401C0B78491C002A01D09A42F7D0EF
:10655000D01A704738B472B6A54A906800211171FC
:1065600062B6002823D00168002920D043694C6915
:106570009C421CD100E021000C68002C02D065690F
:106580009D42F8D072B603681469844200D1136149
:10659000026A13601A6201620A680260002A00D06F
:1065A0001062086038200A00393212780A5462B644
:1065B00031BC7047F8B500278D4C67700120207002
:1065C00072B6E06B010004D08047E7636763382050
:1065D000275462B601F02CFA0078CD2802D07D2035
:1065E00001F02CFAA068002807D0C16B002904D064
:1065F00009680A0001D0406888473120205C0028E3
:1066000009D0A06838303021615C01702079002801
:1066100001D0FFF79FFFA068002805D0017C00296A
:1066200002D1416B491C41632069002826D002E059
:106630002868206162B672B62569002D41D02E7C93
:10664000002E3ED070070FD5E868216A411A012953
:1066500006DA280000F090F8287C002804D10DE02C
:10666000616A411A00D56062FB2030401028DFD1FA
:10667000A86880684068007C0028D9D172B620E004
:106680002069002804D0686921694969884218D3C3
:10669000287C400710D5E868216A401A012806DAEC
:1066A000280000F069F872B6287C002809D0E86854
:1066B000616A411A00D5606262B62D68002D72B61B
:1066C000DED1607900280BD12069002832D0206902
:1066D000007C0028206911D08068806840680DE047
:1066E0006771206A8021C90540186062E16908006D
:1066F00001D02000884762B6E568DFE7A060C06A85
:106700000078CD2802D0782001F098F9A068C16BFC
:10671000002904D049680A0001D040688847A06871
:106720003030017A3022A1543122A1540168491C31
:10673000016006E03120275430202754A7602770DD
:1067400062B62000F2BD10B5294C2078401E2070A2
:10675000207800280FD1606800280CD072B606D0CF
:1067600001202070200001F0D7F90020207060780F
:10677000002800D162B610BD38B581681C4C0029D4
:1067800009D0226AC2600A684968002A00D05160B4
:106790000A6000218160017C8907890F017413D18F
:1067A0002169002911D1206101202178002906D119
:1067B0002070200001F0B0F90020207000E060712E
:1067C0006078002800D162B631BD42694B699342BE
:1067D000E9D38142E8D09A42F6D103001B68002B2E
:1067E000EED05D69AA42EBD18B42F7D1DBE7000026
:1067F0007801002038B54169304C2278521C227053
:1068000022000C3200E01A001368002B02D05D69F0
:10681000A942F8D3036002621060002B09D018620D
:106820005A698A4202D13921415C00E000213822B4
:106830008154017C002906D172B6FFF79DFF607874
:10684000002800D162B6FFF77EFF31BD38B51B4C82
:1068500025782078401C2070200001F05DF925701B
:106860006078002800D162B631BD10B501F082F920
:1068700012480121017001F0DBF8040001F0DCF89E
:10688000021B203A012A03DBCD212000FFF70EFE78
:1068900010BD80B509490A6A80180A78002A04D018
:1068A00062B60A6A121A07D5FBE772B68968C86031
:1068B00004200874FFF7CAFF01BD00007801002022
:1068C000402801D32B3806E0212801D1142002E012
:1068D000142800D11320C0B27047FEE7FDB584B084
:1068E0000D0014469549194002910C9E0D980D908B
:1068F000E80715D5002C13D00D9801900298009050
:1069000033000122290004980069049FFF693F6B4E
:10691000B847002873D4241A01286ED1761C6D1C48
:106920000698400057D4A80718D5022C16D30D9806
:1069300001900298012101430091330001222900B6
:1069400004980069049FFF693F6BB847002856D43C
:106950004100641A012850D1B61CAD1C06980028CD
:106960001CD4042C1AD3A00803900D98019002980F
:106970000221014300913300039A29000498006921
:10698000049FFF693F6BB847002838D48100641A20
:106990000399884231D1880036182D18022C1AD359
:1069A000600803900D980190029801210143009125
:1069B0003300039A290004980069049FFF693F6B24
:1069C000B84700281BD44100641A0399884214D1A7
:1069D000480036182D18002C0FD00D980190029801
:1069E000009033002200290004980069049DED699D
:1069F0002D6BA847002802D4241A0598001B07B065
:106A0000F0BDFDB584B00D0014464C49194001910C
:106A10000C9EE80713D5002C11D000913300012201
:106A2000290004980069049FFF697F6BB84700281C
:106A300000D581E0241A01287CD1761C6D1C0698B3
:106A4000400067D4A80716D5022C14D30198012161
:106A50000143009133000122290004980069049F3A
:106A6000FF697F6BB847002866D44100641A01288B
:106A700060D1B61CAD1C0698002830D4042C2ED34F
:106A80000498C069876B38000FD0019800280CD19A
:106A900000903300A208290004980069B847002834
:106AA0004AD48000241A2D183618A008029016D057
:106AB00001980221014300913300029A29000498B1
:106AC0000069049FFF697F6BB847002834D48100B8
:106AD000641A029988422DD1880036182D18022C8C
:106AE00018D36008029001980121014300913300FE
:106AF000029A290004980069049FFF697F6BB847D8
:106B0000002819D44100641A0299884212D1480021
:106B100036182D18002C0DD001980090330022005B
:106B2000290004980069049DED696D6BA847002851
:106B300002D4241A0598001B07B0F0BD0000FF3FE7
:106B40007047FEE7F8B50C0006009C4D2868002849
:106B500004D13000EA68D2699047F1BDAB68002BE0
:106B600018D06968CF1ABC4200D22700002F11D07C
:106B70003A003100C01801F00BF8A868C119A960EB
:106B8000F619E41B1FD02868EA68D26990470020F4
:106B9000A86001E0002C16D06868401EC74327405B
:106BA00007D039003000EA68D2699047F619E41B33
:106BB00009D022003100A8682B68181800F0E8FFFF
:106BC000A8680019A860F1BD002804D000210022A7
:106BD00006C00838016070478E4801210170704777
:106BE000002900D1704780B5002803D08A4AD268B6
:106BF0005269904701BD70B505000C00864E3068A3
:106C0000002806D1F068406A8047706001F024F8DF
:106C1000306021002800FFF795FF70BD01B5042109
:106C20006846FFF7E8FF01BD70B588B00400202278
:106C3000C9B26846FFF73AFC774D212C01D32026D4
:106C400000E026002868002806D1E868406A8047EE
:106C5000686001F001F8286031006846FFF772FFB4
:106C6000A41BEAD108B070BD30B589B00400202261
:106C7000C9B26846FFF71AFC212C01D3202500E099
:106C8000250029006846644AD26852699047641B0F
:106C9000F2D109B030BD80B50021FFF7E5FF01BD9D
:106CA00080B55D4AD2689269904701BD01B5012166
:106CB0006846FFF795FF01BD01B502216846FFF761
:106CC0008FFF01BD01B504216846FFF789FF01BDB3
:106CD00010B5514C2068002808D0A168002905D0C3
:106CE000E268526990470020A06010BDE068006A29
:106CF000804710BD80B5002901D1002002BD464A61
:106D0000D2689268904702BD50B589B00400212C2A
:106D100001D3202600E0260031006846FFF7EAFF95
:106D2000002801D1A41BF2D109B050BD80B53A4A68
:106D3000D268D268904702BD80B50421FFF7DAFF20
:106D400002BD10B582B00400684600220260FFF761
:106D5000D1FF69460A784B781B0213438A781204E4
:106D60001A43C97809061143216016BD80B52A4827
:106D7000C0680068804702BD80B52748C068406889
:106D8000804702BD10B50D4C2000103000F0AEFF62
:106D900001F035F82148E06010BD80B51E48103084
:106DA00001F002F901BD80B51A48002101701A48AE
:106DB000C0680069804701BD00000000300B002062
:106DC00080B501F0D7F802BD10B582B0040004E030
:106DD00002211148103001F00DF901F0CBF8002824
:106DE0000BD001F0C2F8012807DB0B480B49C1604A
:106DF00001212000FFF77EFF16BD01F0BBF800283F
:106E0000E6D00021684601F09FF80028E0D5002078
:106E1000C04316BD641B0020300B00203CF400086A
:106E2000F1B58AB00024E443082108A8FFF762FF07
:106E3000089806900998010C0904079180B2059002
:106E4000019000F0FAFE0599814200D901000291FB
:106E500008469349884202D3FF2188430290029852
:106E600000F0FAFE0490002803D13EE006980019D5
:106E700006900198002801D1059C3EE00646029844
:106E8000864200D906000198801B0190069F0025CC
:106E900031000498FFF74AFF0395FFF767FF311AA7
:106EA000039A8C1A002803D0402CF6D33F20844349
:106EB000002D0ED1049988180090079B22003900FC
:106EC0000A98C569AD68A8470500A54200D100250C
:106ED0003F19039800190390B042DED1002D02D073
:106EE0000024E44301E03400C0D50198002801D01B
:106EF000FFF70AFF0498002802D0049800F0D2FEA1
:106F00002000FFF7DFFE0BB0F0BD38B50500AC6820
:106F10003F2084430BD0210028696A681018FFF7CE
:106F2000BFFE286900192861A868001BA86031BD50
:106F3000F1B592B0082106A8FFF7DCFE069F07987E
:106F4000010C0904059180B20490044611280ED367
:106F500000F073FE03900498001D0399884200D24C
:106F60000390039800F078FE0290002803D10DA84A
:106F7000029014200390039E361FA64205D2494872
:106F8000864203D3760A760200E02600464808903F
:106F9000802080000B900298099000200A900C90AD
:106FA00008A8019002980090059B320039001298C1
:106FB000C5696D68A84705000C98012D02DA241AEE
:106FC0001FD121E07F19641B291A0091002C0ED1DA
:106FD000049902984019FFF737FA0099091D0C9897
:106FE000029A1018FFF75CFEFFF772FE0FE0029A9C
:106FF0001018FFF755FEFFF76BFEB542BBD00498A3
:10700000051B2000FFF747FE2800FFF75BFE0298F4
:107010000DA9884201D000F045FE13B0F0BDF0B5D7
:10702000D3B0040005216846FFF764FE6D46297859
:1070300002A8FFF75FFE687800281ED0A878002815
:107040000DD0A54E316A0F182069E169096A884799
:10705000002808D1306A381AF6D5002003E02069EC
:10706000E169096A88471290012808DA1298012814
:1070700010DB28788100091D0DE0012012902B788B
:1070800012AA121D02A92069E469E468A047002839
:10709000ECD51290042112A8FFF7A2FD53B0F0BD69
:1070A00001100000010400000B6F000870B5D4B09F
:1070B000060002E001A8FFF793FD002442AD012184
:1070C0006846FFF717FE68460078FF2806D0684636
:1070D00000782870641C6D1C402CF0D1230001AA9C
:1070E00042A93069F569ED68A847A1006A4612789F
:1070F000FF2ADFD101AA5050091D01A8FFF770FD3A
:1071000054B070BDF0B5D3B00700002442AE02AD5C
:107110000BE0042101A8FFF7EDFD68460078307010
:1071200001982860641C2D1D761C01216846FFF71C
:10713000E1FD68460078FF28EBD1230002AA42A9AE
:107140003869FC692469A047FFF7BCFD53B0F0BD66
:1071500010B582B0040001216846FFF7CBFD6846F8
:1071600001782069E26952699047FFF7ABFDA06D95
:10717000002803D00121200001F09FF813BD80B545
:1071800001000869C96989698847FFF79BFD01BD4E
:1071900010B504002069E169C9698847FFF792FDCD
:1071A000A06D002803D00021200001F086F810BD5A
:1071B00080B501000869C969096A8847FFF782FD3F
:1071C00001BD10B584B00400002003901421029189
:1071D000019004E06846017803A8FFF78BFD0121C8
:1071E0006846FFF787FD6846007800280AD1039BB0
:1071F000019A02992069E469646AA047FFF762FD79
:1072000004B010BD012100A8401CFFF773FD6846C3
:1072100040780128DED00AD3032804D007D268467C
:10722000017802A8D9E76846017801A8D5E7684641
:107230000078FFF769FDD2E710B584B004000020A4
:10724000039001200290019004E06846017803A8B1
:10725000FFF750FD01216846FFF74CFD68460078B6
:1072600000281FD103992069E269926A90471A4861
:107270000178491C01700120FFF70BFB019920697F
:10728000E269526990470298FFF703FB2069E169C0
:10729000C96988470400FFF756FA2000FFF712FD7E
:1072A00004B010BD012100A8401CFFF723FD684673
:1072B00040780428C9D00AD3062804D007D26846EB
:1072C000017802A8C4E76846017801A8C0E76846CB
:1072D0000078FFF719FDBDE778010020FDB584B007
:1072E0000291049D1035296903916846848A0C989F
:1072F0000C90AE8A06411ED02700B44200D9370058
:107300003A0082400092029800F042FCF61B0C9872
:10731000310081400191002E06D00A460098039961
:107320000918286900F034FC0198A8820098029995
:1073300008180290E41B9E48006A6946098B4018B1
:107340000390002C1BD00C9801906846008B009095
:107350006846838A029A00212868EE68B66CB047B6
:10736000002800D50020241A0C998840029908189A
:10737000029003988E49096A401A0128E1DA0C98B4
:10738000E88204988C30012101706846808A001BD5
:1073900007B0F0BD30B583B00500042101A8FFF7A8
:1073A000A9FC00F04AFC0199814202D300F045FC9F
:1073B00001900198052815D300F04EFC0400002030
:1073C000009000230198021F92B2211D2800FFF7B0
:1073D00085FF2060011D2000FFF702FC200000F067
:1073E00061FC02E00020FFF76DFC03B030BDF0B59A
:1073F00085B00700082103A8FFF77CFC03AC2088B8
:107400008000E188884200DA0800001D00F024FCBA
:107410000500E18809D10800FFF776FC6548029075
:10742000042102A8FFF7DCFB33E0002901D0FFF7BD
:1074300061FC0026607900280AD102200090638850
:107440002288291D3800FFF749FF0290064614E004
:10745000012810D10220388523880190608800908F
:10746000E0888010C01A80002A1801213869FC6960
:10747000A46CA04700E0C048029002992800FEF7E3
:10748000E3FFB100091D2800FFF7AAFB280000F068
:1074900009FC05B0F0BD10B582B0040001216846BA
:1074A000FFF728FC684601782069E269D26B9047B3
:1074B000FFF708FC13BD1CB5040008216846FFF760
:1074C00019FC00200099012905D1019901220A43E4
:1074D0008834226000E0A848FFF7F4FB13BD10B524
:1074E00003000120002900D0C148002B5CD059685E
:1074F000002902D00100022008439968002902D027
:10750000010004200843D9680C0002D004000820C0
:1075100020431C69002C02D00400102020435C6929
:10752000002C02D00400202020439C69002C02D0B3
:10753000040040202043DC69002C02D0040080209D
:1075400020431C6A002C03D004008020400020430C
:107550005C6A002C03D004008020800020439C6AD9
:10756000002C03D004008020C0002043DC6B002CE2
:1075700003D00400802040012043002903D00100F3
:10758000802080010843996C002903D001009020DD
:10759000C00108430100C020400208435B6C190091
:1075A00002D0010010009847FFF78CFB10BD0000CF
:1075B00078010020F9FEFFFF00B583B0012100A88B
:1075C000401CFFF797FB01216846FFF793FB022061
:1075D000FFF79AFB00280CD101A968464078000209
:1075E0006A461278104300F039FF00220199FFF734
:1075F00076FF03B000BD00B583B0012100A8401C98
:10760000FFF778FB01216846FFF774FB042102A80D
:10761000FFF770FB01A96846407800026A461278BD
:10762000104300F01BFF029A0199FFF758FF03B0C7
:1076300000BD70B5A6B09022002101A8FEF736FF6C
:10764000012100A8801CFFF755FB01AD04E068464E
:10765000017801A8FFF775FB01216846FFF74AFB97
:1076600068460078002806D101A96846807800F0B5
:1076700079FF26B070BD012100A8401CFFF73AFB3E
:10768000684640780728E2D031D3092809D002D3D0
:107690000A280AD02BE068460178281DFFF72AFB4C
:1076A000DAE768460178681DF8E768460078082838
:1076B00002D26846047800E008242100280008303F
:1076C000FFF718FB68460078061BC5D0300000F0B5
:1076D000C3FA0690002804D03100FFF70BFB079691
:1076E000BAE768460078001BFFF70EFBB4E7684670
:1076F0000078F9E770B582B002216846FFF7FAFA20
:10770000684646780078C100091809014F4A5418A4
:1077100004282DDA25001035E968002928D0112E1B
:1077200026D2C100081A8000494908184949096A47
:10773000C1602868002802D1200000F0A6FE8C203D
:1077400001212154E868C26CB00000BF43A10E586B
:1077500010000AD00121286890472000B04700217E
:107760002868EA68D26C904773BD2000B04773BDAB
:10777000FFF732FA73BD0000FAFEFFFFF8B50120F3
:107780000090324F3C00324D0C358D370426206975
:10779000002825D08C20205C002821D038780028B3
:1077A0001ED128682C4940182A49096A401A012824
:1077B00016DB200000F0B4FD002800D1009020006E
:1077C00001F0F4F8002800D1009020001030C068CB
:1077D000016D080004D020008847002800D10090E7
:1077E000903490371C35761ED1D10098F2BD000040
:1077F000010000400100401C0022D243914201D10F
:1078000000210420CA0052181201104B9A18136963
:10781000002B02D08C3200231370491C8142F1DB13
:10782000704738B50C0000280FD4C10008180001BB
:1078300006490D18002C03D1280000F01AFD02E0C3
:10784000280000F02AFD8D352C7031BDD0120020AB
:107850004C1200207801002010270000316F000832
:10786000216E0008AD700008057100085171000814
:107870007F71000891710008B1710008C3710008A0
:107880003972000895730008977400081F7000088B
:10789000EF730008E1830008A18D0008B7740008A9
:1078A000F0B5059C02E0F0B5334C2468A6464C4682
:1078B00055465E466746F0B4994682468B469446E6
:1078C0002E4A10210420148801263602B4432304D2
:1078D000344323437446012C00DA51E04F46092F0C
:1078E00000D308275C4625782D02641CA346544625
:1078F0002678641CA24635436C0810D31A266C0AFD
:1079000000D318269153138010836D08744600BF6E
:10791000641EFDD550837446641EFDD510E01C0C1A
:10792000148010836D087446641EFDD55083744620
:10793000641EFDD51469640902D30124E4052543BE
:107940007F1ED9D14E46082E02D20824A41BE54042
:107950002D0C64462570641CA4464E46092E02DB9D
:10796000083EB146BAD1F0BCA146AA46B346BC46D1
:107970001C0C1480F0BD0000EC0A00200000004840
:107980004F46092F00D308275C4625782D02641C3A
:10799000A34654462678641CA24635436C0809D396
:1079A0001A266C0A00D318269153138010836D0891
:1079B00050830AE01C0C148010836D0850831469F6
:1079C000640902D30124E40525437F1EE6D14E4617
:1079D000082E02D20824A41BE5402D0C6446257015
:1079E000641CA4464E46092EBDDB083EB146C7D1F5
:1079F0001206130A1A43130C1A4300BF130030B4C3
:107A000014001500103902D310393CC0FCD24907CC
:107A100000D30CC000D504C0890002D30280801CB2
:107A2000002900D5027030BC704700000022E5E755
:107A300000487047681B00206846704706490A786E
:107A4000521C0A7000224A7062B604490870087815
:107A50000028FCD1704700BF78010020591B00208E
:107A600038488168002901D108B00ED0EFF30982AF
:107A7000283A0368F8C243464C4655465E4678C2EB
:107A8000734608C2283A83685A60FEF793FD8168FE
:107A900000291CD04A68143278CAB346AA46A146C7
:107AA000984608CA9E46283AF8CA27490B601432FD
:107AB00082F3098870460421084386469069234969
:107AC000814203D02248034200D162B67047214868
:107AD00021490968401A80F308882049C16120497A
:107AE00081610621C9438E46704701BC20461D496D
:107AF0008E4600BDFEE71C48006817490968401A19
:107B000020380721884380F3088800210D48417000
:107B100062B600F012F8FEE703680CB40021417071
:107B200062B61249124A0A6000BF72B60CBC03600A
:107B300070470E490E4A0A6070470C490C4A0A60A9
:107B40007047000078010020780100202A7B00089F
:107B500000FF0000481D002038F50008000000016B
:107B6000B5F20008F57A00080048000804ED00E0CE
:107B700000000010EFF3108072B604490A68FF237A
:107B80001B0413430B6080F31088704720ED00E066
:107B9000124207D08B0706D00B78491C0370401C9B
:107BA000521EF7D87047830706D00B78491C037024
:107BB000401C521EF9D1704770B4103A03D378C9F3
:107BC000103A78C0FBD2530701D318C918C001D5A9
:107BD00008C908C0D20704D30B880380891C801C05
:107BE000002A01D50B78037070BC704718B40022CE
:107BF000426001602A490A68002A02D1086011BC6B
:107C000070470A0000E0221D1468002C01D0A04239
:107C1000F9D24460106008680028F0D000E0080045
:107C200041680029EBD0026883188B42F7D14B687A
:107C30004360096851180160F2E70020184909689B
:107C400004E00A68904200D2100049680029F8D187
:107C5000002800D00838704718B401000020C91D62
:107C60000722914308310E4A00E01A1D1368002BC9
:107C700014D01C68A14208D218005B181360026877
:107C8000521A1A6042685A6004E08C42EDD1180022
:107C90005B681360002801D00160083012BC704797
:107CA0002C0B0020002800D1704780B508380168EF
:107CB000FFF79CFF01BD80B5CA1D07218A4308322A
:107CC000083801680260891A8018FFF78FFF01BD2C
:107CD00010B504002068FFF7E5FF0020206010BD0C
:107CE00080B507229143FFF781FF01BD10B572B641
:107CF000074C6178491C617008220021FEF7D6FB11
:107D00006078401E60706078002800D162B610BDB7
:107D100078010020F0B583B0002069460880142463
:107D200001F048FA002800D0102401F041FA0028A0
:107D300001D0382084430122012100A8801C01F0D9
:107D40007BFA68468078012802D0022806D00BE032
:107D50000422002101A801F005FB15E004220821FE
:107D600001A801F069FA0FE088480190102C0BD1AE
:107D700001220021684601F05FFA68460078042875
:107D800002D26846012141700198814F3E000B36B6
:107D90000C2502AA0A21FEF790FB029930313170BE
:107DA000761E6D1EF5D1FF20801C6946497800299A
:107DB00003D06946097808180CE0102C0AD0142C5E
:107DC00001D1001D06E0042C01D1401D02E08020FD
:107DD00040012043788203B0F0BD80B5FEF7DDFF9F
:107DE00001BD10B50C00A007800F022801D0FEF7DE
:107DF000D4FF600702D567480121017010BD30B57E
:107E000083B0FFF787FF01F057FC02F0AFFA604C38
:107E100001F0CEF900281FD101AD009000234022CF
:107E20000221012001F0B5FB2870402000902300C2
:107E30002C3340220221002001F0ABFB687001A826
:107E400002F076FB5449002002F0B8FB00225349AF
:107E50002000203001F0A4FF1034200002F082F94D
:107E600001F05EFC03B030BD80B501F086F914204E
:107E7000FEF70FFD01F080F901BD10B582B00C00D6
:107E8000474909680091002322000100002002F008
:107E9000F8FAA04204D0002001F068F901F036F9A8
:107EA00013BD10B582B03E4C206800900123002223
:107EB0000021002002F0E5FA2168002002F087FB93
:107EC00013BD10B50C0036490B68220001000020DC
:107ED00002F0CCFAA04204D0002001F047F901F0F2
:107EE00015F910BD38B505000C002D4801680020BB
:107EF00002F075FB002804D0002001F037F901F0F2
:107F000005F90020C0430090002322002900002032
:107F100002F0B7FA002804D5002001F027F901F09B
:107F2000F5F831BD10B50C001D490B6822000100A9
:107F3000002002F0D0FAA04204D0002001F016F98F
:107F400001F0E4F8002010BD80B50A000100002017
:107F500002F0CAFA02BD80B5002002F0DFFA02BDCD
:107F600080B5002002F0D2FA02BD80B5002002F0F8
:107F7000C4FA02BD80B501F054FF8007800F0228CB
:107F800001D1012002BD002002BD000040E201003D
:107F90000C010020631B0020DB7D0008E37D00084E
:107FA000080100204020704738B5040072B6104D1B
:107FB0006878401C687001202071206800280ED06D
:107FC0002878401C2870200002F034FB002804D1DF
:107FD0006079012801D000202071FEF7B4FB687899
:107FE000401E68706878002800D162B631BD00BFBD
:107FF0007801002070B5040072B60F4E306A451843
:10800000207900280CD12A004821200002F036FBFC
:10801000B068C068281A012801DA012070BD72B664
:108020006079012801D0002020717078002800D1EB
:1080300062B6002070BD00BF78010020F2B584B0A8
:108040000600356E706E316D88421FD0042204A97F
:108050002800FFF79DFD2D1D002401E06D18641C14
:10806000306B844215DA2001F16A08180290002072
:108070000190009502988368426801683000F769B2
:108080007F68B847029949688842E7D00020C0431A
:108090000BE0B06D316D41188D4200D105003566A1
:1080A000706EF16B40187066002005B0F0BDF8B539
:1080B000070004216846FFF735FF786E002802D1DB
:1080C000FEF700FEF1BD0098F96B02F011FB009085
:1080D000F96B48430090786E0099884200D90800F7
:1080E000009004216846FEF786FDFC6D009D02F0BD
:1080F00033FB386DB96D0818061BB54200D22E004F
:1081000031002000FEF777FDA419B86D396D4118D4
:108110008C4200D10400AD1BEBD102F022FBFEF734
:10812000D7FDFC65786E0099401A7866F1BDF8B508
:1081300004000026009604213030FFF7F3FEE662CB
:10814000206B0B2805D20001FFF786FDE0620028B6
:108150001BD10120C0430090206B00010830FEF7C6
:10816000D3FDE06A002801D0FFF79CFDA06D002838
:1081700001D0FFF797FD3C2200212C342000FEF7B0
:1081800095F90098FEF79EFDF1BD216B0901FFF7FF
:10819000C9FE042120003430FFF7C4FE0421200072
:1081A0003830FFF7BFFEE663206B012808DBE16A89
:1081B000091DE26B0B68D218E2631031401EF8D142
:1081C000E06B001DE063616B642900D26421824A88
:1081D000504302F08DFA0500A06D002806D0216DF5
:1081E000A94221D0FFF75EFD2665A665FFF725FDB4
:1081F000E76B4100081840000A2102F079FA3900C3
:1082000002F076FA7843854200D90500BD4203D3D7
:108210002800FFF721FDA065A06D002803D10120F3
:10822000C04300909DE725656665A06DE065A06D83
:108230002066FA25AD003820205CC00709D502F081
:10824000BFFA0600606B37183000290002F03CFAD4
:1082500007E06248066A606B290002F049FA3718A5
:108260003000E0646664276400212000FFF7E6FE2A
:1082700087E710B504000120616D01400CD1A16BAE
:10828000084002D002F09CFA01E05448006A616C98
:108290000818A16C401A606410BD10B504000120DC
:1082A000616D014008D1A16B084002D002F088FA4C
:1082B00001E04A48006AA06410BD8D22825C002A59
:1082C00000D0704738B5383004002278D007C00F8E
:1082D00000290FD10125E169294020D1002802D0D1
:1082E00002F06EFA01E03D48006A2061E069054352
:1082F000E56131BD012912D1217FC9070FD50028C1
:1083000002D002F05DFA01E03448006AE168081822
:108310002169401AE060E06901218843E06131BDD4
:10832000F0B583B0040001250195206B002850D0E2
:10833000E06B00284DD000260196A06B284003D0AA
:1083400002F03EFA070001E02448076A206CC01BD7
:1083500001283EDA616BA26B2A4007D10090080029
:10836000FA21890002F0C4F901000098401800D5F4
:10837000002038182064194E306AE16C814218D010
:10838000E0642069E169096A8847002807D1606DC7
:10839000284012D001212000FFF78FFF0DE00128B7
:1083A00017D1606D054014D100212000FFF785FF33
:1083B0000FE0606D2840C0070BD4A06B054002D0D1
:1083C00002F0FEF900E0306A616C411A2000FFF70C
:1083D00035FE019803B0F0BDA086010078010020B1
:1083E00010B58AB0040001216846FFF79BFD68467E
:1083F000007800281DD0022807D002D3032814D00B
:1084000027E02000FFF793FE23E02000303000211A
:108410000160C16A026B8A4201D3501A02E0006A0D
:10842000401A8018FEF74EFC13E02000FFF73FFED5
:108430000FE001900A210291FA2189000391049032
:1084400005900690079008900990242101A8FEF756
:10845000C7FB8C34012020700AB010BD18B4020094
:1084600000230020FF24A41CA24208D07D4CA2427D
:1084700005D07D4CA24202D07C4CA24200D17C4867
:10848000002900D00B6012BC704770B50600FFF7E2
:10849000D4FB050080204001854202DAFFF7CDFBC6
:1084A0000500002D25D02800FFF7D6FB04002A0088
:1084B00021003000F369DB6A9847002816D4291A96
:1084C0002000FFF7F8FB34610020B0843062F069CF
:1084D000006800280DD0FFF7B0FB0100F0690068CC
:1084E000814206DBFFF7B8FB306270BD2000FFF76A
:1084F000D9FB70BD10B5C100081800015D490C180A
:10850000206900282DD0206A002803D020002030C8
:10851000FFF7DEFBA06D002803D0FFF7C3FB0020B0
:10852000A065E06A002803D0FFF7BCFB0020E062F2
:10853000606F002803D0FFF7B5FB00206067A06ED6
:10854000002803D0FFF7AEFB0020A066606900287A
:1085500003D020001430FFF7BBFB10342000FFF7DE
:10856000B7FB10BDF8B50C00042826DA2168090E07
:108570000025FF2900D100210E0221790E43C10000
:10858000091809013B4A5718FFF7B4FFFF20801C68
:10859000864208D03348864205D03348864202D00E
:1085A0003248864200D1324DE561902221003800E8
:1085B000FFF702FB3800FFF768FFF1BDF7B50700D2
:1085C0000E001D00454CE069C26C100013D0012163
:1085D00020699047002001900095029B32003900ED
:1085E0002000E5696D68A847050000212069E2695F
:1085F000D26C90470AE0002001900095029B320067
:1086000039002000E4696468A0470500280003B031
:10861000F0BDF4B582B007000E001D00304CE069DB
:10862000C26C100011D00121206990470095029B77
:10863000320039002000E569AD68A8470500002137
:108640002069E269D26C904708E00095029B3200F5
:1086500039002000E469A468A0470500280003B0A1
:10866000F0BD00000103000001060000010E000043
:10867000045B0008D012002038B5194CE169CA6CBF
:10868000206913000CD0012190472069E169096A33
:108690008847050000212069E269D26C904702E01A
:1086A000096A88470500280032BD38B50C4CE169DD
:1086B000CA6C206913000CD0012190472069E16940
:1086C000C9698847050000212069E269D26C90479A
:1086D00002E0C96988470500280032BDD012002099
:1086E000D0120020010088684A68801A01D5C96844
:1086F00040187047010048688A68801A401E01D5FA
:10870000C96840187047F2B504001500FFF7F2FF82
:10871000A84203DA2000FFF7EDFF05002E00A06855
:10872000E16822685118091A37008E4200DD0F00F7
:108730003A000099FFF72CFAA068C0190099C919EE
:108740000091F61B2168E2688A18121A00D108000D
:10875000A060002EE3D12800F2BDF8B504000D00A2
:1087600001F0FAFF8F4F381D02F09AF86068E16857
:10877000226851180E1AB54200DA2E00002E03D0DE
:108780003100FEF738FAAD1B002D03D02900206818
:10879000FEF731FAAD192000FFF7A4FFA84203DA73
:1087A0002000FFF79FFF00E02800002810D0050000
:1087B000E1682068411862688B1A9D4200DC2B003A
:1087C000D2186260ED1A891A00D16060002DEFD1D5
:1087D000381D02F085F801F0C4FF2000FFF782FF8A
:1087E000050061682068E2688218521AAA4208DB14
:1087F000012D02DB2A0002F08BF82068606040192E
:10880000A060F1BDF0B583B0050016001C00089B08
:108810000020019000942800EF697F68B847B042BB
:1088200002D00020C0432AE06879002826D0606981
:10883000FDF7D8FD60612069FDF7D4FD2061183493
:10884000002618E02068FDF7CDFD20606068FDF788
:10885000C9FD6060A068FDF7C5FDA060E068FDF798
:10886000C1FDE0602069FDF7BDFD20616069FDF795
:10887000B9FD6061761CE86E8642E3DB002003B040
:10888000F0BDF0B583B00400002708216846FEF76C
:1088900031FA0198012860DB0025434EA6422ED014
:1088A000B06E00282BD0706F002828D03068216867
:1088B000884224D130792179884220D104222100B4
:1088C00008313000083002F036F8002817D1E800EF
:1088D0004019000134490D18686F002802D0FFF7D5
:1088E000E1F96F67A86E002802D0FFF7DBF9AF66E9
:1088F0002022002168352800FDF7D8FD03E06D1C1B
:108900009036042DCADB656F002D0CD02800FFF7D0
:10891000C9F9A06EFFF7C6F92022002120006830B7
:10892000FDF7C4FD0025019841000E18F600300047
:10893000FFF792F9A06632000021FDF7B7FDA06EA7
:1089400000280CD0FFF779F9052101F0D1FE0600CF
:10895000FFF782F9050019D10127FF4306E001273F
:10896000FF43002D07D02800FFF79CF9A06E0028D8
:1089700001D0FFF797F92022002168342000FDF78D
:1089800095FD3800FEF79EF903B0F0BD0098206712
:108990000198E066802026506567A567E567843406
:1089A0002770EEE7C80B0020D0120020F1B590B080
:1089B000614E3068002804D101203060301D01F084
:1089C0005AFF1098743002901098C06E002800D1A1
:1089D00024E102980068002800D11FE1109884303B
:1089E0000078002800D019E110980068000E0828CF
:1089F00003D00C2801D00F2801D1022000E0002074
:108A000000060E900298FFF775FE042849DAFFF77A
:108A100014F905900298C0680599884200D3FDE0DA
:108A20000846FFF719F9040000D1B4E1301D01F048
:108A300037FF0298416882688A420AD3521A20009E
:108A4000FFF7A6F80298806802994968401A201832
:108A500017E0C26803689A18551A2A002000FFF729
:108A600097F8029801688068421A6019FFF790F839
:108A70000298C06802998968029A5268891A611836
:108A800008180299886002994C6002980599C160A3
:108A900002980068FFF706F902980460301D01F0A3
:108AA0001FFF1098C06E41000D18ED00183528000A
:108AB000FFF7D2F8040000D199E00E98009023004F
:108AC0002A001098016FFFF79DFE00280DD4207832
:108AD00053280AD16078452807D1A078472804D1C7
:108AE0001098C06E2169814203D02000FFF7DAF8A8
:108AF00051E12100183103911099896E01910022F2
:108B00000092012843DB002200258E68002E039B83
:108B100014D19B68002B34D0A04DAB4200DBD24374
:108B2000039D2D69AB4201DA0022D243039DED681B
:108B3000AB4259DB1EE000BFC80B00205B684F68EA
:108B4000BB4200D0D243039B9B68B34201D00022BA
:108B5000D243039E3669B34201DA0022D243039E18
:108B6000F668B34201DA0022D243039B1B680E6809
:108B7000B34200D00125002A35D1002D01D00122B9
:108B800000921831039A18320392401EBBD120691B
:108B900041000A18D200210018310198FEF7F8FFB1
:108BA0002000FFF77FF8009800282DD020694100B1
:108BB0000C18E4006846FF210174029806A96CC8ED
:108BC0006CC106A8FFF796FD844204A811DA447030
:108BD000200A04A98870032206A8FFF794FD22004A
:108BE0001098816E0AE0CAD52000FFF75BF80020DC
:108BF000CFE0002141708170032204A906A8FFF78D
:108C000082FD0298089981601098806E0390002779
:108C10000298FFF76FFD0400042C01DA0120B8E090
:108C2000039840680A900399096941180B91039AC7
:108C3000D26880180C90039880680D9003981830C3
:108C400003900D98002800D19CE00F919748844232
:108C500000DB441EE41E0AA8FFF744FDA04203DA2D
:108C60000AA8FFF73FFD0400002C00D593E000D1D7
:108C700088E0029806A96CC86CC16846077404A80D
:108C80004470201204A98870032206A8FFF73BFD58
:108C900008980999069A5118091A25008C4200DD96
:108CA0000D000B990D9A0A9B9A18521A954200DBF7
:108CB00015000022019200900E9B2A001098C669B0
:108CC0007668B0470600AE4265D106A8FFF712FDF0
:108CD000A84203DA06A8FFF70DFD00E02800099975
:108CE000069A5118089BCA1A904200DC02009B1891
:108CF0000893801AC91A01D1069908910028EED16B
:108D00000AA8FFF7EFFCA84203DA0AA8FFF7EAFC7B
:108D100000E02800002810D00D990A9A51180B9BEA
:108D2000CA1A904200DC02009B180B93801AC91AE1
:108D300001D10A990B910028EED1641BA8D1002E15
:108D400029D40298089981600B980F99884219D00C
:108D50007900C919C900109A126F8C1828340A9921
:108D6000401A059010984079002802D005A8FDF718
:108D70002BFB05A800900E9B042221001098C469CB
:108D8000A468A04700207F1C1099C96E8F4200DAAA
:108D90003EE711B0F0BD0020C043FAE7010000013A
:108DA00070B584B0040042480168002904D1012153
:108DB0000160001D01F05FFD012102A8FFF7B2F87C
:108DC0006846007A05280CD801A1095C8F4400BFD1
:108DD000061C24347A8E0320009004216846FDF797
:108DE000FFFE8C340120207004B070BD2000FFF71E
:108DF00048FDF6E720006C30012101760020FDF7E8
:108E000061FFEEE70025042101A8FFF78BF826009B
:108E100074363068002806D0E06E002803D0300099
:108E2000FFF760FC05002800FDF7F8FE002D09D0D3
:108E30000198002806D00146A94200DD2900300033
:108E4000FFF78BFCFDF744FFCBE7210074310020D6
:108E50000A68002AD3D00800FFF744FCCFE70421BA
:108E60006846FFF75FF8250074352868002815D09C
:108E7000E06E002812D02800FFF734FC009900298A
:108E8000E0D000280DD00E46864200DD06003100FD
:108E90002800FFF762FC0098801B009000980028D3
:108EA000D0D0FE210098FDF7BFFECBE70300010004
:108EB000C80B002008B4024B9C4608BC6047C04663
:108EC000ED050020F8B408B40D0007990324430011
:108ED0009C40E3439024E40526681E4026602668F3
:108EE0004700BD403543256001258540A6882F00F9
:108EF000BE43A6806E463678002E02D0A688374341
:108F0000A780A6681E40A660A668B4466E46377E57
:108F10004600B74066463743A760E6683340E360E3
:108F2000E368400082401A43E260002903D0A06950
:108F30000543A56102E0208D05432585F3BC7047FC
:108F400055480168802292020A4302609020C005C1
:108F5000A02189050160C168524A0A43C26001210B
:108F60008161026803239A434AE04F4870474F48A3
:108F70000188C806C00F70474C4801884807C00FD9
:108F8000704700207047494800880107C80F7047A4
:108F9000464801888807C00F704701207047FF20AE
:108FA00070479020C005016830229143016001683C
:108FB000684A0A4002600CE09020C0050221018549
:108FC00001680C22914304222CE09020C00502216C
:108FD000816101680C2291430160704770477047BE
:108FE000704770479020C0051021018503E0902054
:108FF000C005102181610168564A0A40802149005C
:10900000114301607047704770479020C0050421EC
:10901000018503E09020C0050421816101683022B0
:10902000914310220A430260704780B5FFF7EDFFBD
:10903000FFF7F0FF01BD52484068704710B50100CE
:109040004F4C616010D00020206038480078012823
:109050000AD14C4A914204D24B4801F049FB001F0F
:1090600001E00020C043206010BD10B582B00400B4
:1090700008004349096800912100FEF711FC002017
:1090800016BD2A490978012901D8182100E03021AC
:1090900081803E49016070471410024070473C488F
:1090A0007047000055555541E40C00001000004881
:1090B000012800D0704700B583B000200190032044
:1090C00000900023002201210220FFF7FBFE012077
:1090D0000190032000900023012200210420FFF7CB
:1090E000F1FE0120019003200090002301220021C5
:1090F000FFF7E8FE012001900320009000230122E9
:1091000000210120FFF7DEFE03B000BD72B601F0C2
:1091100035FC2048022101601F48FFF7CBFE1F48A5
:10912000016889B21E4A0A430260FEE7611B002003
:10913000002806D0401E032806D90938022803D982
:1091400004E0094800787047002070470020C043C1
:1091500070470000FFFCFFFF7047002802D1114854
:109160000121018070470000581B0020002802D117
:109170000D48012101607047704770470B487047E8
:10918000EC0A002080841E00808D5B00006CDC02F5
:10919000102700004060004020A107000CED00E017
:1091A0000700FA052800004818000048FF3F00208B
:1091B0000020704780B501228921684600F03CF804
:1091C00068460078012803D068460078FF2801D15E
:1091D000002002BD012002BD0120C0437047FEE710
:1091E00008B4024B9C4608BC6047C04617050020E7
:1091F00008B4024B9C4608BC6047C0469703002059
:1092000080B57348002101600120FDF74FFD642007
:10921000FDF73FFB72B66F484178491C41706A48C0
:109220006A490160FFF772FF01BD6B4801780029B0
:1092300001D16A4810307047F0B506000C001500E7
:10924000002E1ED0002D1CD060196549884218D20E
:10925000C80884420FD2001B2F00854200D90700A6
:109260003A00604821183000FEF792FCF619ED1B19
:10927000E419002D05D02A005A4821183000FEF7C5
:1092800087FCF0BD80B55748FFF7AAFF002002BD5C
:10929000F0B5C1B00C00150000280AD0002D47D051
:1092A000070080200001844203D260194C498842A3
:1092B00002D30020C0433CE0FF2C1ED88020400099
:1092C000061B864200D90600AE4200D92E003200AD
:1092D00039006846FEF75CFC0023320069464148CD
:1092E0002018FFF785FFBF19AD1BA419FF2C02D86A
:1092F000002DE3D11CE0002D1AD0FF20C04324181C
:10930000FF20801C854201D3461E00E02E00320063
:1093100039006846FEF73CFC0023320069463248BB
:109320002018FFF765FFBF19AD1BA419002DE7D169
:10933000002041B0F0BD38B5040007D0002901D1AC
:10934000002032BD80252D01A94202D00020C0435B
:1093500032BD2448FFF744FF2A0000212000FFF718
:1093600097FF32BD002800D1704710B5002A0FD0FA
:109370008B18FF24A41CA3420AD2631E994207D271
:109380005B1A9A4200D91A00184BC918FEF700FC64
:1093900010BD10B5C0B080246400A14201D10028E6
:1093A00002D10020C0430BE0220001006846FEF716
:1093B000EFFB0023220069460C48FFF719FF00204D
:1093C00040B010BD00000000000100202143341215
:1093D0004812002078010020BC110020004900083C
:1093E000010800000040000800410008003F00089C
:1093F000F9B583B00D0017000101081A8000AC49CF
:109400000E18AC4C2000A430009080698047B079E1
:10941000012801D1022496E0E41D0294E07880073F
:10942000800F022800D08DE0306900280FD1707EB7
:10943000C107C90F684601710A980A90002D45D1ED
:10944000002F43D1002843D1706A002801D00324A3
:1094500079E00024012500212D193A1B0020029BF0
:109460001B78002B06D0049B002B02D10A9B002BFB
:1094700000D0012072613561B176F07600990988DB
:10948000491C009B19803181317E00290DD1318822
:10949000914202D2002800D00A0029000398009BC4
:1094A0001B69DB6A9847012030760A9802284BDA5C
:1094B000049800283BD00146039801F083FA002865
:1094C00038D00021039800F01BFE33E0002F02D1BA
:1094D0006846012101713A00290030001C3000F07B
:1094E00035F90400381B04D00A98012815D1002C46
:1094F00017D068460079002826D0306A716A401A71
:109500003188884220D302200A90002168460079E1
:10951000002819D000220025A0E7002102289BD1B5
:10952000F4E701213088B84296D2070094E7039807
:1095300001F041FA70693C1A0298C0788007800FE8
:10954000022801D00024E4430098C069804720002D
:1095500005B0F0BD18B401002031447F641E012C19
:1095600005DB0A0008320CCA0CC1641EF9D1417F28
:10957000491E417711BC704738B50C00856B04E07B
:10958000A96820006A6890472D68002DF8D131BD88
:109590007047FEB582B007004648B43000680090BE
:1095A000002644480078062853D269460871010114
:1095B000081A80003E490D180098C36C0A980A905A
:1095C000180005D00A9A6846017A3800984705E0E5
:1095D0006846017A3800009A52689047040038D0F3
:1095E000FF2C36D03C212800FEF720FAF901214358
:1095F00069716846007A287168460079009949695E
:1096000088470600002F03D10A98B04200D8060010
:1096100000F0FEFCC2B26846017A300000F0C1FCE6
:109620002880684680896880002F03D02048C06861
:10963000E86003E00498E8610A9828621D48007811
:109640000600401C1B4908706000C0190818F8305B
:109650000670300005B0F0BD410601D10020704712
:109660000107C90E000600D5491C9F484018F83074
:10967000007870470101081A80000D4908184079E8
:1096800070479948817A8807C00F7047F8B5094F2D
:10969000B4203C580125064E03E03000A1688847FD
:1096A0006D1C3C3638788542F7DBE0688047F1BDB9
:1096B000040E00206C0F0020F8B50020C04300907D
:1096C000894C8E2149002000FEF7B0F90127277050
:1096D000A72032212154B94DB42149002800FEF7BA
:1096E000A5F901F057F901F0BDF9B4202658200082
:1096F000EC300168002901D1B1490160706D0100B1
:1097000000D080470020716988472880326C1000A3
:1097100002D06946052090470098E8606772F1BD65
:1097200038B5714CB4202558286880472A6C100041
:1097300007D0E11D062090472100083102202A6C45
:1097400090471020A0722869804731BDF2B504000F
:109750001500002621E0002924D0E0684118626845
:109760008A4200D90A00171AAF4200D92F003A00E6
:10977000216809180098FEF70BFAED1BA068C01BC2
:10978000A060F6190098C0190090E068C019E06068
:109790006168884201D10020E060A168002DDAD123
:1097A000002901D10020E0603000F2BDF2B50400D4
:1097B00015006068A168461A1CE0E068A1684018BE
:1097C0006168884200D3401A4219914200D91100C1
:1097D0000F1AAF4200D92F003A00009923681818D9
:1097E000FEF7D6F9ED1BA068C019A0600098C0195B
:1097F0000090F61B002DE0D13000F2BD10B500F056
:10980000B5FC80B500F0B8FC10B582B0002B02D5D5
:109810000224002300E0012400F0AAFC80B5674B7D
:1098200018625962012058779A76002018832E49D1
:10983000B4310968096B884701BDF7B504001F0002
:10984000294EB07A8007800F022801D0002008E05E
:109850002001001B800059490D18A879002802D06A
:109860000220C0433DE0A436B0698047687F0028ED
:109870001FD0C100691818314A680B689B18019CF9
:10988000A34204D1029810184860AF7625E003285F
:1098900002D10324E44321E008310C6002984860BF
:1098A000687F401C6877AF763088401C3080288104
:1098B00013E02900203101980860029848600120D7
:1098C0006877AF763088401C30802881286900286E
:1098D00003D120003169096B88470024F069804773
:1098E000200003B0F0BD00006C0F0020F2B582B084
:1098F00004002001001B800030490E18824D280012
:10990000BC300190006800277179090631D50097B5
:10991000002580473069002802D1707F002820D0C0
:1099200037770298002819D00146200001F04AF844
:10993000002816D03069022800DB451E3000203098
:10994000717F012905DB4268AD180830491E0129E5
:10995000F9DA0021200000F0D3FB02E0200001F042
:109960002AF8019840688047002D23D001200090FC
:1099700020E080473069002818D0029800280BD0DA
:109980000146200001F01EF8002808D00021200028
:1099900000F0B6FB012702E0200001F00CF8A87AE5
:1099A0008007800F022801D00027FF4301984068FC
:1099B00080470097009803B0F0BD0000040E00201F
:1099C00091950008F8B504000F002001001B8000ED
:1099D0004E490D1800264C48BC3000900068804766
:1099E000687F032814D3002F01D5012610E0012041
:1099F0002877002F07D03900200000F0E3FF00286F
:109A000004D0012602E0200000F0D5FF00202877D6
:109A10000098406880473000F2BDFEB504000F009A
:109A20001500089E002E02D5FFF707FF4EE068469E
:109A3000037A2A0039002000FFF7FFFE0321C94303
:109A4000884206D131002000FFF7BCFF0028EED08D
:109A50003BE000283AD4019600272001001B80003B
:109A60002A490E182848BC300090006880473069A9
:109A7000002802D1707F002820D037770198002875
:109A800019D00146200000F09DFF002816D0306953
:109A9000022800DB471E30002030717F012905DBE2
:109AA0004268BF180830491E0129F9DA0021200058
:109AB00000F026FB02E0200000F07DFF00984068E7
:109AC0008047AF4201D2E81B00E0002003B0F0BDA8
:109AD00042001018C0000C4A101801637047420081
:109AE0001018C000084A10184163704706490A0060
:109AF000A6321378032B06D29B00C918A831086040
:109B00001078401C107070476C0F0020040E00206D
:109B1000F2B582B0060015003001801B8000AC4910
:109B20000C18002E12D10024B14E3700A637387819
:109B3000844261DAA0003018A8300268100002D018
:109B4000290002989047641CE4B2F0E7E06800281E
:109B500003D029000298E268904701200090206914
:109B600000282CD061698D4201D22F0000E0676986
:109B7000002F0DD03A000299FEF70AF8ED1B02986B
:109B8000C01902902069C01920616069C01B606122
:109B90006069002802D0A07E002810D0300000F0BC
:109BA00003FF00272761607EC00706D4300090497C
:109BB000B4310968896A8847277609200090002D0A
:109BC00016D02A00029920001C30FFF7EFFD617EBD
:109BD000C90702D5218888420AD2207E002807D0F2
:109BE00030008349B4310968896A884700202076AB
:109BF00000992000FFF7C0FC03B0F0BDF8B50600E7
:109C00003001801B800072490D18687F002874D0D5
:109C1000002E02D0296900296FD10021E9762F009A
:109C200020377968002904D1022802D32800FFF7E1
:109C300091FC6F48B43003681C6D20001AD0288B4B
:109C400000906B463A00697F3000A04704000098FE
:109C50002883601C2861260003E0361A2800FFF7DD
:109C600079FC7868B042F8D3801B78603868801936
:109C700038601FE07C682888844200D90400601C9A
:109C800028612200396830005B6B98477868001BB8
:109C90007860386800193860002C03D02988481E85
:109CA000204001D0002010E02E8B200000F020FD8D
:109CB000301828836869002808D0298B002905D02E
:109CC0002A885143401E084000D128837868002824
:109CD00013D1687F022803D32800FFF73BFCF1BDB6
:109CE000002C08D0288B002805D0A87E002802D0A0
:109CF0000020A876F1BD00206877F1BD38B50400DA
:109D00002001001B800032490D18002C0DD028695D
:109D100002280ADB0020C04328610421E87E0028D5
:109D200000D106212800FFF727FC00202861687F6A
:109D300000280CD02000FFF761FF687F032818D2AD
:109D4000287F002815D0200000F02EFE31BD200015
:109D50002749B4310968896B8847002C07D0200057
:109D600000F022FE40212800FFF706FC31BD01F083
:109D70009CF931BD80B50201121A9200144B9A1859
:109D800091711B4AB4321268126A904701BD80B5C6
:109D90000121FFF7EFFF01BD1549B431086070479D
:109DA00038B400230024002538C00C38416082609C
:109DB000A6490A68130000E01B68002B03D0834209
:109DC000FAD1012002E002600860002032BC704736
:109DD000040E002010B40401201A80009C4C2018AE
:109DE0004A608B60826B0A60816310BC7047000020
:109DF0006C0F002010B59748817A00210173012271
:109E0000934B423302E01970521C3C330478A24257
:109E1000F9DB817A102001400820084300F014F893
:109E200010BD8C48807A704780B58A48817A0120BD
:109E3000084300F009F801BD80B58648817AFE200C
:109E4000084000F001F801BDF0B583B00700814E75
:109E5000B47AB42030580190BC4249D0A00719D43C
:109E6000B80717D5012568460570FFF70FFC07E016
:109E700000212800FFF77EFF280001F059FA6D1C31
:109E800030788542F4D30198026C100002D0694604
:109E900000209047A0070BD5B80709D468460021D9
:109EA00001700198026C100002D0694600209047B2
:109EB0008C204000345806E06268100002D039005F
:109EC000A06890472468002CF6D1B772B07A0621BA
:109ED00008420DD0012408E00021200000F010F914
:109EE000200000F0B9F8641CE4B230788442F3DB5F
:109EF00003B0F0BD01000020564A927A9207920FFB
:109F0000022A05D10801401A800051490818406A08
:109F1000704738B505004F4CBC3420688047280195
:109F2000401B80004A4908180169022901DB4D1EC7
:109F300000E0002501002031407F012805DB4A6850
:109F4000AD180831401E0128F9DA60688047280002
:109F500032BD0101081A80003D4908184069704768
:109F60000101081A80003A490818417F002902D0EF
:109F70000020C0437047018B4269002A0AD00029A3
:109F800006D003885943521E0A4008D1002101839C
:109F900000207047481E8041C043C00F7047012019
:109FA00070470200032905D14020824213D24008A5
:109FB000FBD17047402A01D340207047202A01D3AB
:109FC00020207047102A01D310207047082A01D39F
:109FD000082070470020704701700A0A42700A0C7E
:109FE0008270090EC17070470170090A4170704794
:109FF0000178427812020A43817809041143C0783B
:10A000000006084370470178407800020843704713
:10A0100080B52848B4300068806980470221084034
:10A0200002BD80B52348B430006880698047C0070E
:10A03000C00F02BD1F4A5078411C517041000918E1
:10A04000C90051182A3108707047000084100020A0
:10A05000040E00206C0F002070B504002001001BCE
:10A06000800048490D180026AE716879000604D5B5
:10A070002E616E772E8320210DE06E62AE622E611E
:10A08000287E002805D020003F49B4310968896A3C
:10A0900088472E7610212800FFF76EFA200000F086
:10A0A00083FC70BD0201101A8000364A1018C1608E
:10A0B000704700006C0F002078B4010001200024DC
:10A0C000314B1D00C826AE59002E05D1A00018182E
:10A0D000C8300160002003E0641C2D1D052CF1D365
:10A0E00072BC70472849DC31086070470201101AC1
:10A0F0008000244A10184279120600D44176704735
:10A10000F8B504000F002048B43001682001001B9E
:10A1100080001C4A1518002C19D00026687900060A
:10A1200007D52000896B88472E616E772E8320210A
:10A1300005E02000896A88472E762E6110212800CC
:10A14000FFF71AFA002F02D0200000F02DFCF1BD1D
:10A150000D49EC31086070470B4BB83318605960FB
:10A160009A6070470849F4310860704782B0002453
:10A170000094FFF73DF916BD032300930023FFF77A
:10A1800037F902BD040E00206C0F002010B59E4C64
:10A19000E168002904D1006801F0A0F901202061E4
:10A1A00010BD7047800700D1704780B500F0DEFA1F
:10A1B00001BDF0B589B0FFF734FE8007800F02289B
:10A1C0000CD1914C2068002808D060688F49096A3A
:10A1D000401A012802DA2069002801D1012046E056
:10A1E00001256069002804D12000183001F07AFAB6
:10A1F0006061616900290ED00023DB43A269A06879
