:020000040800F2
:10000000C809002079020008B9200008E91B00088F
:10001000B520000825190008272700080000000067
:100020000000000000000000000000006522000841
:10003000C91A0008000000002D21000879230008DB
:10004000930200089302000893020008930200083C
:10005000930200089302000893020008930200082C
:10006000930200089302000893020008930200081C
:10007000930200089302000893020008930200080C
:1000800093020008930200089302000893020008FC
:1000900093020008930200089302000893020008EC
:1000A00093020008930200089302000893020008DC
:1000B00093020008930200089302000893020008CC
:1000C00093020008930200089302000893020008BC
:1000D00093020008F923000881240008F524000891
:1000E000930200089302000893020008930200089C
:1000F000930200089302000893020008930200088C
:10010000930200089302000893020008930200087B
:10011000930200089302000893020008930200086B
:10012000930200089302000893020008930200085B
:1001300000F002F800F090F80AA090E8000C824469
:100140008344AAF10107DA4501D100F085F8AFF246
:10015000090EBAE80F0013F0010F18BFFB1A43F0A5
:10016000010318470466000024660000103A24BF0B
:1001700078C878C1FAD8520724BF30C830C144BF0C
:1001800004680C607047000000230024002500264E
:10019000103A28BF78C1FBD8520728BF30C148BFEA
:1001A0000B6070476E2900F0F782702900F0D7804D
:1001B000662902F0DD85652902F0DA85672902F0FB
:1001C000D7856129AFF3008003681B0A28BF41F07F
:1001D0008001692900F0A482642900F0A1827529B8
:1001E00000F09E826F2900F0C683782900F0A3807A
:1001F000E92900F06183E42900F05E83F52900F02D
:100200005B83EF2900F0C383F82900F0A280036824
:10021000DB0928BF41F08001632900F0488673297B
:1002200000F04D86E32900F05886F32900F05D8642
:10023000002070471FB500F0A9FE04000020002137
:1002400002F080FD401C60600020002102F064FD8F
:10025000E0601FBD10B510BD00F06BFE1146FFF74A
:10026000E9FF02F023FB00F047FF03B4FFF7F2FFC2
:1002700003BC02F075FA00000948804709480047AE
:10028000FEE7FEE7FEE7FEE7FEE7FEE7FEE7FEE746
:10029000FEE7FEE704480549054A064B70470000A3
:1002A0007D23000831010008C8030020C809002090
:1002B000C8050020C8050020704700001CB50C468A
:1002C000064B7B4469460090204600F07EFA0446C7
:1002D0000020694600F08CFA20461CBD2B0500006A
:1002E000F0B40D460188090502D5214C7C4402E09A
:1002F0001F4C7C440E34002100F1240608E002F07B
:100300000F071209E75D42EA03721B097754491C83
:1003100052EA0307F3D102780023120704D5702DA7
:1003200006D009B1022311342246F0BC00F09FB977
:1003300001231034F8E770B504460D4621461068D5
:1003400000F063F9024629462046BDE870400023CC
:10035000C6E7D21D22F00703D3E90023C0E70368F4
:10036000126843F0200303600823C3610023B7E74A
:10037000A06300002DE9F05F894604464FF0000AB3
:10038000DFF874B1FB44C0F820A02046E16888473C
:10039000002874D0252806D0D4E901219047206A8E
:1003A000401C2062F1E700265F462046E16888474E
:1003B0002028054607DB312D05D2781910F8200CCE
:1003C00008B10643F1E7B00701D526F00406C4F8EA
:1003D0001CA00027C4F818A02A2D09D0284602F036
:1003E000B8F938B304EB8708303DC8F8185019E065
:1003F00059F8041B204604EB87029161E1688847A5
:10040000012F054618D1E069002820DA26F02006E1
:100410001DE0D8F8180000EB800005EB40003038F4
:10042000C8F818002046E1688847054602F091F9AF
:100430000028EED1012F0AD02E2D08D12046E168E8
:1004400088477F1C0546022F46F02006C4DBA069C2
:10045000002803DA404246F00106A061F00701D00F
:1004600026F010066C2D0BD0682D09D04C2D39D0FC
:100470006A2D35D0742D35D07A2D33D016E038E082
:10048000E1682F4620468847B842054609D16C2FBF
:1004900026D04FF48060E168064320468847054631
:1004A00004E06C2F1AD04FF4807006430DB3A5F111
:1004B0004100192802D8203546F400664A462946EC
:1004C000204626604E46FFF76DFE80B101280BD016
:1004D000F61D26F0070000F1080956E74020E4E782
:1004E0008020D8E70020D6E706F104094DE728462A
:1004F00052E7206ABDE8F09F3063000030B5054642
:100500000B462A4613F8014B12F8010B08B1A04222
:10051000F8D01CB1002802D06D1CF1E7284630BD90
:1005200010B5431C02E010F8011B71B18107FAD12C
:100530004FF0013202C88C1A8C4314EAC211F9D070
:10054000C01A0A0603D0C01E10BDC01A10BD0A048E
:1005500001D0801E10BD0902FCD0401E10BD4FF01E
:1005600000020429C0F0128010F0030C00F01C827D
:10057000CCF1040CBCF1020F18BF00F8012BA8BF8E
:1005800020F8022BA1EB0C0100F00EBA5FEAC17C4F
:1005900024BF00F8012B00F8012B48BF00F8012B05
:1005A0007047704770477047704770B5044685695B
:1005B0000068C10601D5302600E02026C00707D01C
:1005C00070BDD4E9012130469047206A401C20626A
:1005D0006D1EF6D570BD70B5044685690078C007FC
:1005E00007D170BDD4E9012120209047206A401C2A
:1005F00020626D1EF6D570BD09684A0501D540B26E
:100600007047C905FCD500B2704709684A0501D595
:10061000C0B27047C905FCD580B2704770B50C46B2
:100620000546012A05D02878800600D5EA6900230E
:1006300002E0012305E05B1C934202D2E05C00284B
:10064000F9D1A869E618C01AA861286A1844286276
:100650002846FFF7AAFF04E0D5E9012114F8010BB1
:100660009047B442F8D32846FFF7B5FF70BD2DE997
:10067000F0470D4699469246044600F12408016869
:10068000880604D5E06921F01001216000E0012016
:10069000A84201DD471B00E00027A1697A1902EB9F
:1006A0000900081AA0612078C00602D42046FFF78E
:1006B0007CFF002608E0D4E901211AF806009047E3
:1006C000206A401C761C20624E45F4DB2078C00670
:1006D0000AD52046FFF769FF06E0D4E90121302062
:1006E0009047206A401C2062381EA7F10107F4DC05
:1006F00007E0D4E9012118F805009047206A401C62
:100700002062281EA5F10105F3DC2046FFF763FFF8
:100710002078000602D50220BDE8F0870120FBE723
:100720002DE9F0410646002410687529314616A5CA
:1007300010D0FFF761FF002802DA404213A507E05E
:1007400031688A0701D512A502E0490704D511A531
:10075000012401E0FFF759FF00210A2206F12407D6
:1007600009E0B0FBF2FCB0FBF2F302FB1C003030FE
:1007700078541846491C0028F3D123462A463046AF
:10078000BDE8F041FFF773BF000000002D0000003E
:100790002B0000002000000011680268006A530569
:1007A00001D508700AE0D30501D5088006E01306DC
:1007B00003D5C217C1E9000200E0086001207047BC
:1007C00001694A1C02610878704700B58FB0CDE915
:1007D00001310021059105497944CDE90310114605
:1007E0006846FFF7C7FD0FB000BD0000E5FFFFFF43
:1007F0000A6802F8010B0A60704700002DE9FF5FEC
:1008000015468A460446DFF8AC80F8440027D8E94C
:1008100000103E46CDE9001010E03AF816106A4686
:1008200002A800F066FB411C07D02178890603D599
:10083000E269391891420DD80744761C2078800669
:1008400002D5E069B84205DDAE42E6DB3AF81600B3
:100850000028E2D1A069C01BA0612046FFF7A5FED9
:10086000D8E90010CDE90010002017E03AF8181080
:100870006A4602A800F03DFBB0F1FF3F81460BD075
:1008800000250DF1080B05E0D4E901211BF8050056
:1008900090476D1C4D45F7D308F10100B0428046EA
:1008A000E4DB206A384420622046FFF794FEBDE86E
:1008B000FF9F0000BE5E00002DE9F0418046D21D82
:1008C00022F007020025D2E90002F52915A614D06E
:1008D000011E72F1000106DA0023D0EB030063EB86
:1008E000020211A608E0D8F800108B0701D50FA668
:1008F00002E0490701D50EA601251146002408F1A2
:10090000240704E000F075F830323A55641C50EAD0
:100910000102F7D12B46324621464046BDE8F04160
:10092000FFF7A5BE000000002D0000002B00000016
:100930002000000030B4002100F1240408E002F09F
:100940000705D208303542EA4372DB086554491C7A
:1009500052EA0305F3D10468002310A2250707D546
:10096000A40600D421B1C46901230DA2641EC46190
:1009700030BCFFF77CBE10B5044621461068FFF777
:1009800044FE02462046BDE810400023D2E7D21DB7
:1009900022F00701D1E90023CCE7000000000000AD
:1009A000300000004FF0000200B513469446964612
:1009B000203922BFA0E80C50A0E80C50B1F1200172
:1009C000BFF4F7AF090728BFA0E80C5048BF0CC020
:1009D0005DF804EB890028BF40F8042B08BF70477E
:1009E00048BF20F8022B11F0804F18BF00F8012BF0
:1009F000704730B5B0F10A024FEA900E71F1000372
:100A00004EEA817EB0EB0E0061EB91014FEA101EC1
:100A10004EEA017E10EB0E0041EB11114FEA102E51
:100A20004EEA016E10EB0E0041EB11214FEA104E21
:100A30004EEA014E10EB0E0041EB1141401841F11E
:100A400000014FEAD00040EA41704FEAD10110EBBB
:100A500080054FEA810444EA907444EB01046D1967
:100A600044EB0404521BA3414FF0000348BF0A3279
:100A700000D530BD401C41F1000130BD70472DE96B
:100A8000FF4F0C461E464FF0FF378BB0D2E90001F6
:100A9000DDF860800A908A46C1F30A5505B93D46E3
:100AA000002108464FF00000BAF1000F00F44000AA
:100AB00005DA00EB80004FF4400101EA50004FEAF4
:100AC0009059B9F1010F00DDB9460A9850EA4A0081
:100AD0000ED044F61050A5F2FF3545432F14B8F15F
:100AE000000F1ED07542291E1EDDC9F100021CE058
:100AF000B8F1010F4FF0000001D0302103E0F243C4
:100B000005E02154401CB042FBDB304600220021AE
:100B100021540B99C1F80880C1E900200FB0BDE84D
:100B2000F08FBD1B6D1CDEE74A4600DA694206A85D
:100B300000F070FA06AB93E8070003AB83E8070008
:100B400050460A9900F026FB8DE80700A0F50050FA
:100B50001F3800900398002D0ADD42F21F014A461B
:100B60000844002303A90390684600F08FFD09E0C4
:100B7000A0F500504A461F38002303A90390684699
:100B800000F099FD8DE807000004000C03D04FF041
:100B9000FF30410800E01046B8F1000F03D00022FA
:100BA000009215461EE0751E05D4FFF722FF303275
:100BB00062556D1EF9D5B3460122084302D00022CA
:100BC0007F1C04E02078302801D100227F1E002AFB
:100BD000099784D01DE0112D07DAFFF70AFF3032A4
:100BE00062556D1C50EA0102F5D1084302D000980D
:100BF000C8B10EE00021681E05E0235C625C63540E
:100C00002254401E491C8142F7DBAB46A81B401E04
:100C10000990002004F80B000B98099AC0F808808E
:100C2000C0E9002B7AE711264FF0000857E72DE9BD
:100C3000F04F88460446D21D22F0070191B0D1E959
:100C40000001CDE90A0101F070FD02460B98C00FCA
:100C500001D02D2007E02068810701D52B2002E07C
:100C6000202101EAC000032A099001D0072A05DBF0
:100C700003464146204600F08DF90BE120788006BE
:100C800001D5E06900E00620B8F1650F814606D085
:100C9000B8F1660F18D0B8F1670F70D131E00020BD
:100CA000B9F1110F009001DB112301E009F10103FB
:100CB0000AAA01A90CA8FFF7E2FEDDE90C700026E4
:100CC00009F10105834647E001204B4600904FF0B3
:100CD00000470AAA01A90CA8FFF7D1FEDDE90DB073
:100CE0000C995D46002610B909F101000D18B9EB09
:100CF000050003D4C0F1FF3609F10105A5EB090099
:100D00002BE0B9F1010F01DA4FF001090020B9F130
:100D1000110F0090484601DD112300E003460AAAA6
:100D200001A90CA8FFF7ABFEDDE90C704D460026CB
:100D30008346207800070AD4AB4500DA5D4601A857
:100D4000012D04DD411911F8011C302907D04F4550
:100D500002DA17F1040F04DA012082460FE06D1E5B
:100D6000EEE7002F02DCED1B3E4403E0781CA842B6
:100D700000DD7D1CB81B00F1010A4FF00047207810
:100D8000000703D4AA4501DB4FF0FF3A0021B7F179
:100D9000004F0DF143088DF8431024D002202B237F
:100DA000002F01DA7F422D230A21021EA0F101004B
:100DB00000DC5FB197FBF1FC97FBF1F201FB1C7CBF
:100DC00017460CF1300C08F801CDEEE7A8F1010050
:100DD00003702188090501D5452100E06521A0F1B6
:100DE000010800F8011C09980FA9A1EB0807FF1DD5
:100DF00000B10120411901EBEA70A1693844081AD9
:100E0000401EA0612078C00602D42046FFF7CDFB2B
:100E1000099828B1D4E901219047206A401C20623A
:100E20002078C00622D52046FFF7BFFB1EE0002E2B
:100E300004DBB34502DD01A8805D00E03020D4E989
:100E400001219047206A401C2062761CAAF1010013
:100E50005FEA000A0AD100F099F8C0680168405CB6
:100E6000D4E901219047206A401C2062281EA5F188
:100E70000105DCDC07E0D4E9012118F8010B9047FB
:100E8000206A401C2062381EA7F10107F3DC2046CF
:100E9000FFF7A1FB032011B041E610B5436913B180
:100EA000AFF3008001E0FFF7B9FB012010BD12781D
:100EB00000F124010A7000224A700122EDE7116856
:100EC0004FF0FF32E9E710B5436913B1AFF300808B
:100ED00001E0FFF793FC012010BD128800F124010E
:100EE00082840022C2840122EDE711684FF0FF32B4
:100EF000E9E770B516460C46054600F03FF8036872
:100F000093F80101012806D0FF2C0FD8185D68B1B5
:100F100001202C7070BDD3F807013246214603F240
:100F2000071303442846BDE8704018474FF0FF30D0
:100F300070BD754600F0EAF8AE46050069465346B6
:100F400020F00700854618B020B5FFF7A3F9BDE8EB
:100F500020404FF000064FF000074FF000084FF020
:100F6000000B21F00701AC46ACE8C009ACE8C009B1
:100F7000ACE8C009ACE8C0098D46704710B500F078
:100F800005F8001D10BD00BFBD1D000000487047E2
:100F9000880300202DE9F0411F460446032601681E
:100FA000072A01F4006004DB08B116A505E016A5C8
:100FB00003E008B115A500E015A521F010002060A0
:100FC000A069C01EA0610FB1401EA0612046FFF7BE
:100FD000ECFA4FB1D4E9012138469047206A401C11
:100FE0002062C01C206206E0206AFAE7D4E90121F1
:100FF00015F8010B9047761EF8D22046FFF7EBFA62
:10100000BDE8F0814E414E006E616E00494E4600D3
:10101000696E66002DE9F047814616468AB035486C
:1010200078440DC88DE80D0032487844801C03AC2C
:101030000DC884E80D0041F69B300844372190FB31
:10104000F1F290FBF1F5A5F1800501FB12041B3CC8
:1010500002D56442012000E00020DFF898A080461D
:101060000027FA44AAF1BE0A0EE0E0070AD0324691
:10107000684607EB470101230AEB810100F01BFBE7
:101080008DE8070064107F1C002CEED1194F7F44BF
:10109000AE3F19E0E80715D007EB04100DF1180A70
:1010A00090E80E008AE80E00C068F04201D198195D
:1010B00008903246012306A903A800F0FCFA03AB0E
:1010C00083E807006D10641C002DE3D14FF001038D
:1010D00032466946B8F1000F03A802D000F0D6FAF4
:1010E00001E000F0E8FAC9E90001C9F808200AB0F7
:1010F000BDE8F0872C57000010B50446AFF3008020
:101100002046BDE81040FFF7B0B800000048704727
:10111000680300204FF0013C50F8042B51F8043BC9
:101120009A4221D1A2EB0C03934313EACC1317D1BB
:1011300050F8042B51F8043B9A4215D1A2EB0C0352
:10114000934313EACC130BD150F8042B51F8043B12
:101150009A4209D1A2EB0C03934313EACC13DBD0E0
:101160004FF00000704700BFD01A01BAB1FA81F108
:1011700001F0180122FA01F0CB40C1F12001DBB2ED
:10118000C0B2C01A2CFA01F3D11A914311EAC3116B
:10119000E6D170475FEA400C08BF91F0000F4FEABC
:1011A0008C234FEAC12243EA51514FEA1C5018BF29
:1011B00000F5F0404FEA300018BF41F000415FEA0F
:1011C0006C5C00F02980BCF1FF3F08BF40F080401C
:1011D0007047130C06BF12044FF0100C4FF0000CB8
:1011E000130E04BF12020CF1080C130F04BF1201FE
:1011F0000CF1040C930F04BF92000CF1020CD30FFE
:1012000004BF52000CF1010C11464FF00002A0F196
:101210001F00A0EB0C00704711F0004F08BF704793
:1012200031F000413FF4D5AF0B0C06BF09044FF07D
:10123000100C4FF0000C0B0E04BF09020CF1080C4F
:101240000B0F04BF09010CF1040C8B0F04BF8900C4
:101250000CF1020CCB0F04BF49000CF1010CCCF1D6
:101260002003A0EB0C0022FA03F302FA0CF241EA8D
:10127000030100F10100704720F07F4C80EA030079
:1012800023F07F47ACEB070303F57C5300F00040ED
:1012900003F1FF032DE980494FEA154B09B44FEAEA
:1012A000144325EA0B4E24EA03480FF2042606EB0A
:1012B000132749083E785FEA320203FB0667C7F549
:1012C000000707FB06F64FEA54374FEAD64606F109
:1012D000020607FB066CCCF1005C4FEA1C472CEAC7
:1012E000074C07FB06F40CFB06F504EB15464FEA2A
:1012F000961634BF00204FF000404FEAD13706FB6E
:1013000007FC4FEA1C4C0CFB0BF7D21B03FB0CF742
:1013100061EB07010CFB0EF7B0EB074072EB1742D5
:101320000CFB08F734BFA2EB0742B2EB074261EBBC
:1013300017414FEA0C444FEA910706FB07FC4FEABE
:101340001C4C0CFB0BF7B0EBC74072EB573203FBA6
:101350000CF734BFA2EBC742B2EBC74261EB573187
:101360000CFB0EF7B0EBC70072EB57720CFB08F7E3
:1013700034BFA2EBC702B2EBC70261EB5771039F08
:101380004FEA816141EA921104EBCC044FEAD13774
:101390004FEA826206FB07FC42EA90124FEA806045
:1013A0004FEA1C4C0CFB0BF7D21B03FB0CF761EB59
:1013B00007010CFB0EF7B0EB074072EB17420CFB7A
:1013C00008F734BFA2EB0742B2EB074261EB1741CB
:1013D0004FEA8C554FEA910704EB9C2406FB07FC6F
:1013E0004FEA1C4C0CFB0BF7B0EBC74072EB5732CB
:1013F00003FB0CF734BFA2EBC742B2EBC74261EB71
:1014000057310CFB0EF7B0EBC70072EB57720CFBB9
:1014100008F734BFA2EBC702B2EBC70261EB57710A
:1014200015EB4C254FEA816141EA92114FEA826245
:101430004FEAD13742EA901206FB07FC44F1000460
:101440004FEA80604FEA1C4C0CFB0BF7D21B03FBEE
:101450000CF761EB07010CFB0EF7B0EB074072EBEA
:1014600017420CFB08F734BFA2EB0742B2EB07426E
:1014700061EB174115EB1C154FEA813141EA9241AE
:101480004FEA823242EA90424FEA80304FEA0C76CD
:1014900044F1000448EA03434EEA0B484FF0000EC3
:1014A000B2EB080C71EB030724BF624639464EEBE2
:1014B0000E0E4FF0000B0018524149414BEB0B0B45
:1014C000B2EB080C71EB03077BF1000B24BF624603
:1014D00039464EEB0E0E4FF0000B001852414941B9
:1014E0004BEB0B0BB2EB080C71EB03077BF1000B22
:1014F00024BF624639464EEB0E0E51EA020718BF72
:1015000046F0010616EB0E7655F1000254F100018B
:1015100003D5BDE88901BDE80088BDE88901BDE8C3
:101520000048B619524141EB0101A3F10103704794
:1015300080807F7E7D7C7B7A797877767675747310
:10154000727171706F6E6E6D6C6C6B6A6A696868CF
:10155000676666656464636362616160605F5F5E65
:101560005E5D5D5C5C5B5B5A5A59595858575756DB
:101570005655555554545353525252515150505040
:101580004F4F4F4E4E4D4D4D4C4C4C4B4B4B4A4A92
:101590004A494949484848474747474646464545D6
:1015A000454444444443434343424242424141410F
:1015B000002B9C4630D477002BD01CB54FEA370760
:1015C00003B44FF010004FF01001BAF1000F06D035
:1015D000BCF1000FDCBF40F0080040F008014FF004
:1015E00000000FBCBDE810400BF1010BBBF1010F77
:1015F00008BF5FEA170722BF12F1010211F10101D2
:101600004FF0004143F1000300F0004043EA0000C6
:101610007047F9D35708D0E746EA064613F1400F62
:101620004FEA16461FDD13F1200FDFBF16430A46AF
:10163000002120335B42BED0C3F1200746EA0646B4
:1016400002FA07F74FEA164646EA0706C3F12007F3
:1016500022FA03F201FA07F721FA03F14FF000032F
:1016600042EA0702A7E746EA020646EA06464FEACA
:10167000164646EA0106BCBF46EA0646360C4FF05F
:1016800000034FF000024FF0000194E72DE9804C79
:101690009A46934670B491E8380007C831EA400C86
:1016A00048BF34EA430C03D5FFF7E6FDFFF780FFA0
:1016B000F0BCBDE8008C2DE9804C9A46934670B48E
:1016C00091E8380007C810F0804F08BF13F0804F32
:1016D00003D100F005F8FFF76BFFF0BCBDE8008C0C
:1016E00020F07F4780EA030023F07F4C07EB0C03D8
:1016F000A3F57C5300F00040A3F1FE0392F0000F2D
:1017000000F0B38095F0000F00F077802DE90149DB
:101710004FEA11404FEA144621EA004800FB06FC5C
:1017200024EA064708FB06F607FB08F800FB07F764
:1017300018EB06484CEB164C4FEA124B18EB0748D7
:101740004FEA15464CEB174022EA0B4E0BFB06FC0A
:1017500025EA06470EFB06F607FB0EFE0BFB07F716
:101760001EEB064E4CEB164C4FF000061EEB074EE0
:101770004CEB174B18EB0B0840F1000018EB0E0B6D
:1017800058EB000840F100008F1A4FF000013CBFF9
:10179000C943661B14BFB5EB040C00213CBFC94311
:1017A000F61B4FEA17444EEA8E0E27EA04454FEA2D
:1017B0001C4704FB07622CEA074C05FB07F70CFBF0
:1017C00005F604FB0CFC16EB074642EB174216EB42
:1017D0000C4642EB1C421BEB060658EB0202414151
:1017E00046EA9E0601D5BDE80189B619524141EB92
:1017F0000101A3F10103BDE801894FEA14454FEA55
:10180000114724EA054621EA074C05FB07F406FBCD
:1018100007F70CFB06F105FB0CFC11EB074144EB51
:1018200017444FEA124711EB0C4144EB1C4422EAE7
:10183000074C05FB07F206FB07F70CFB06F605FB5A
:101840000CFC16EB074642EB174216EB0C4642EB3C
:101850001C456A1854F1000148BF7047B61952413F
:1018600041EB0101A3F10103704795F0000F37D060
:101870004FEA11424FEA144721EA024624EA074C94
:1018800002FB07F106FB07F70CFB06F402FB0CFC5E
:1018900014EB074441EB17414FEA154714EB0C4496
:1018A00041EB1C4125EA074C02FB07F506FB07F755
:1018B0000CFB06F602FB0CFC16EB074645EB174546
:1018C00016EB0C4645EB1C42121951F1000148BFC2
:1018D0007047B619524141EB0101A3F10103704772
:1018E0004FEA14454FEA114724EA054621EA074C1E
:1018F00005FB07F106FB07F70CFB06F24FF00006AD
:1019000005FB0CFC12EB074241EB174112EB0C42BA
:1019100051EB1C4148BF7047921841EB0101A3F104
:101920000103704700BFFEE721B1026842F00102E7
:10193000026004E002684FF6FE731A4002607047CE
:1019400001684FF6FE7211400160002101604160A4
:101950008160C1604B49884208D14A4908394968C9
:1019600041F00F01474A083A51608AE04549143175
:10197000884208D143490839496841F0F001414A99
:10198000083A51607DE03F492831884208D13D49FD
:101990000839496841F470613A4A083A516070E088
:1019A00038493C31884208D136490839496841F400
:1019B0007041344A083A516063E0324950318842FC
:1019C00008D130490839496841F470212D4A083A54
:1019D000516056E02B496431884208D129490839C1
:1019E000496841F47001274A083A516049E02549A5
:1019F0007831884208D123490839496841F070613B
:101A0000204A083A51603CE01F49884206D1011F34
:101A1000096841F00F01021F116032E01A491431C8
:101A2000884208D11849091F096841F0F001164A97
:101A3000121F116025E014492831884208D112494B
:101A4000091F096841F470610F4A121F116018E004
:101A50000D493C31884208D10B49091F096841F4FE
:101A60007041094A121F11600BE00749503188424A
:101A700007D10549091F096841F47021024A121F64
:101A800011607047080002400804024010B50022AF
:101A9000026847F6F0739A430C6A8B6823430C691B
:101AA00023434C6923438C692343CC6923434C6A09
:101AB00023438C6A23431A430260CB6843600B685C
:101AC00083604B68C36010BD70472DE9F04102464A
:101AD00000250026002000230024002791F803C0E1
:101AE0000CF00F0591F803C00CF0100CBCF1000FC6
:101AF00003D091F802C04CEA050591F800C0BCF192
:101B0000000F31D0146800202BE04FF0010C0CFACC
:101B100000F3B1F800C00CEA03069E4220D1830016
:101B20004FF00F0C0CFA03F7BC4305FA03FC4CEA28
:101B3000040491F803C0BCF1280F06D14FF0010C4A
:101B40000CFA00FCC2F814C00AE091F803C0BCF122
:101B5000480F05D14FF0010C0CFA00FCC2F810C080
:101B6000401C0828D1D31460B1F800C0BCF1FF0FAD
:101B700034DD546800202EE000F1080C4FF001081D
:101B800008FA0CF3B1F800C00CEA03069E4221D11A
:101B900083004FF00F0C0CFA03F7BC4305FA03FC6B
:101BA0004CEA040491F803C0BCF1280F05D100F100
:101BB000080C08FA0CF8C2F8148091F803C0BCF1C4
:101BC000480F07D100F1080C4FF0010808FA0CF893
:101BD000C2F81080401C0828CED35460BDE8F081C4
:101BE000416170470161704700BFFEE72DE9F04198
:101BF00007460C4615461E462A2000F01FFA3846B6
:101C000000F00DFA284600F00AFA2B2000F016FA30
:101C100004F1140188B200F002FA06F1140188B24E
:101C200000F0FDF92C2000F009FABDE8F08170B554
:101C300004460D4616462B46224629462046FFF707
:101C4000D5FF304600F0EBF970BD2DE9F0470646B0
:101C50000F4614461D46DDF820A0681E83B2601EA4
:101C600082B239463046FFF7C1FFB8460EE0B146B2
:101C700006E0504600F0D3F909F101001FFA80F99F
:101C8000A145F6DB08F101001FFA80F8A845EEDB5C
:101C9000BDE8F08708B501210C2000F069FA0120A9
:101CA000ADF8000010208DF8030003208DF802002D
:101CB00069460C48FFF709FF01210A48FFF792FF28
:101CC000F220ADF8000010208DF8030003208DF8FD
:101CD000020069460448FFF7F8FEF2210248FFF7C8
:101CE00081FF08BD000C01400008014010B5FFF75E
:101CF000D1FF02216248FFF773FF642000F0B0FDBE
:101D000002215F48FFF76EFF642000F0A9FD10215B
:101D10005B48FFF767FF642000F0A2FD112000F090
:101D20008DF9782000F09CFD362000F087F9002026
:101D300000F07EF93A2000F081F9052000F078F9F2
:101D4000B22000F07BF90C2000F072F90C2000F0BA
:101D50006FF9002000F06CF9332000F069F93320AE
:101D600000F066F9B72000F069F9352000F060F95D
:101D7000BB2000F063F9322000F05AF9C22000F0D5
:101D80005DF9012000F054F9C32000F057F9152047
:101D900000F04EF9C42000F051F9202000F048F97D
:101DA000C62000F04BF90F2000F042F9D02000F0DF
:101DB00045F9A42000F03CF9A12000F039F9E02019
:101DC00000F03CF9D02000F033F9082000F030F9A1
:101DD0000E2000F02DF9092000F02AF9092000F06A
:101DE00027F9052000F024F9312000F021F93320F3
:101DF00000F01EF9482000F01BF9172000F018F938
:101E0000142000F015F9152000F012F9312000F02F
:101E10000FF9342000F00CF9E12000F00FF9D02088
:101E200000F006F9082000F003F90E2000F000F998
:101E3000092000F0FDF8092000F0FAF8152000F064
:101E4000F7F8312000F0F4F8332000F0F1F84820E2
:101E500000F0EEF8172000F0EBF8142000F0E8F89E
:101E6000152000F0E5F8312000F0E2F8342000F011
:101E7000DFF8212000F0E2F8292000F0DFF810BDA3
:101E8000000801402DE9FF5F80468A4617469B46C1
:101E90000F9D00200290CDF80080284605EBD07100
:101EA000C1F347042046E21704EB5272D2102146D8
:101EB000E31704EB5373DB10A4EBC3030BB1012353
:101EC00000E000231A446A4392B20192A7F1200075
:101ED000C7B20AEB0500401E83B208EB0400401EA7
:101EE00082B251464046FFF781FE002669E00C2D84
:101EF00007D107EB4700354901EB8000805D039077
:101F00001BE0102D05D1324800EB0710805D0390D7
:101F100013E0182D07D107EB47002E4901EB001005
:101F2000805D039009E0202D05D12B4800EB871040
:101F3000805D039001E0BDE8FF9F4FF000093AE0AB
:101F40001098C8B9012000FA09F00399084018B1A7
:101F5000584600F064F802E00E9800F060F802982D
:101F6000401CC0B20290029890FBF4F104FB1100F7
:101F7000E8B90020029021E0012000FA09F003995D
:101F8000084020B15A4651464046FFF750FE08F13E
:101F900001001FFA80F80098A8EB0000A04206D1CB
:101FA000DDF800800AF101001FFA80FA06E009F16D
:101FB000010000F0FF09B9F1080FC1DB00BF701C80
:101FC00086B20198864292DB00BFB4E7742D000808
:101FD000E8310008D8370008A84900082DE9FE4F6D
:101FE00006460F4614469846DDE90D5ADDF8309056
:101FF00010E0CDE9015ACDF80090227843463946E9
:102000003046FFF73FFF284605EBD07106EB610134
:102010008EB2641C20780028EBD1BDE8FE8F10B58D
:102020000446201200F01AF8E0B200F017F810BDD4
:1020300010B50446204600F011F810BD10B5044656
:1020400040210548FFF7CCFD204600F007F840216D
:102050000148FFF7C7FD10BD0008014070B50446F8
:1020600001211248FFF7BCFD002517E02021104890
:10207000FFF7B6FD04F0800020B180210C48FFF787
:10208000B1FD03E080210A48FFF7AAFD202108489E
:10209000FFF7A8FD6006040E681CC5B2082DE5DB3D
:1020A00001210248FFF79EFD70BD0000000C0140B9
:1020B0000008014000BFFEE77047000070B5002136
:1020C00000230F22C47804B3154C246804F4E064A0
:1020D000C4F5E064210AC1F10403CA40447804FA5B
:1020E00003F184781440214309010E4C0678A15570
:1020F000047804F01F050124AC4005786D11AD0093
:1021000005F1E025C5F8004109E0047804F01F0559
:102110000124AC40044D0678761145F8264070BD88
:102120000CED00E000E400E080E100E0704700001A
:1021300029B1064A52690243044B5A6104E0034A3A
:1021400052698243014B5A617047000000100240FF
:1021500029B1064AD2690243044BDA6104E0034A1A
:10216000D2698243014BDA617047000000100240DF
:1021700029B1064A92690243044B9A6104E0034A7A
:1021800092698243014B9A6170470000001002403F
:1021900030B500210022002400232D4D6D6805F08C
:1021A0000C0121B1042905D0082923D105E0294DCE
:1021B000056022E0274D05601FE0254D6D6805F4A0
:1021C0007012234D6D6805F48034022505EB9242B0
:1021D0001CB9214D554305600BE01D4D6D6805F49C
:1021E00000351DB11C4D5543056002E0194D5543A6
:1021F000056002E0174D056000BF00BF144D6D681B
:1022000005F0F0010909154D6B5C0568DD4045607E
:102210000F4D6D6805F4E061090A104D6B5C45686F
:10222000DD4085600A4D6D6805F46051C90A0B4DAB
:102230006B5C4568DD40C560054D6D6805F4404147
:10224000890B074D6B5CC568B5FBF3F5056130BDC7
:102250000010024000127A0000093D00300000200A
:1022600040000020704710B500F002F810BD0000DB
:102270000CB50020019000903348006840F4803095
:102280003149086000BF3048006800F40030009019
:102290000198401C0190009818B90198B0F5A06F02
:1022A000F1D12948006800F4003010B101200090FD
:1022B00001E0002000900098012843D123480068E5
:1022C00040F01000214908600846006820F0030033
:1022D00008600846006840F0020008601A4840683C
:1022E000194948600846406848600846406840F41C
:1022F000806048600846406820F47C1048600846CA
:10230000406840F4E81048600846006840F080707B
:10231000086000BF0C48006800F000700028F9D089
:102320000948406820F003000749486008464068B3
:1023300040F00200486000BF0348406800F00C0015
:102340000828F9D10CBD0000001002400020024016
:10235000042808D14FF0E021096941F004014FF051
:10236000E022116107E04FF0E021096921F004014A
:102370004FF0E022116170477047000010B513481C
:10238000006840F0010011490860084640681049A3
:1023900008400E494860084600680E4908400B494D
:1023A00008600846006820F48020086008464068FD
:1023B00020F4FE0048604FF41F008860FFF753FFD1
:1023C0004FF000600449086010BD0000001002409A
:1023D0000000FFF8FFFFF6FE08ED00E000BF054932
:1023E000098801F040010029F9D00249091D08803F
:1023F000704700000044004010B540F225511D48D0
:1024000000F0D1F810B31B4800F088F9C4B21A48A4
:10241000008800F40040C8B91748008800F48040E4
:1024200060B10A2C03D000201349088020E0124834
:10243000008840F400401049088019E00D2C06D1B6
:102440000D48008840F480400B49088010E00A489D
:102450000088C0F30D0009490C5407480088401C4F
:102460000549088008460088C72801DD002008804B
:1024700010BD000000380140280000204800002066
:1024800070B540F22551174800F08DF8A8B11548F5
:1024900000F044F9C4B214480088C0F30D00134999
:1024A0000C5411480088401C0F49088008460088D9
:1024B000C72815DD0020088012E040F224410948B9
:1024C00000F071F860B107480088C5B20548001DEA
:1024D0000088C5B2012006490870044800F070F970
:1024E00070BD0000004400402A00002010010020C0
:1024F0002C00002010B540F225511D4800F053F883
:1025000010B31B4800F00AF9C4B21A48008800F45E
:102510000040C8B91748008800F4804060B10A2C18
:1025200003D000201349088020E01248008840F4BE
:1025300000401049088019E00D2C06D10D48008894
:1025400040F480400B49088010E00A480088C0F33E
:102550000D0009490C5407480088401C05490880B3
:1025600008460088C72801DD0020088010BD000053
:10257000004800402E000020A002002021B18289E6
:1025800042F40052828104E082894DF6FF731A40C2
:10259000828170471AB1838A0B43838202E0838A67
:1025A0008B438382704770B50246002400230025C8
:1025B000002040F66A16B14200D100BFC1F34215B7
:1025C00001F01F03012606FA03F3012D02D19689BB
:1025D000334006E0022D02D1168A334001E0968A8C
:1025E00033400C12012606FA04F41688344013B165
:1025F0000CB1012000E0002070BDF0B503460024BE
:1026000000260025002040F66A17B94200D100BF1D
:102610001846C1F3421401F01F06012707FA06F518
:10262000012C01D10C3004E0022C01D1103000E06B
:1026300014301AB107682F43076002E00768AF4300
:102640000760F0BD2DE9F04786B005460E46002430
:10265000A24600BFA1460027B08900B100BF2F46A7
:102660002C8A4CF6FF700440F08804432C82AC891D
:102670004EF6F3100440B08831890843718908434D
:102680000443AC81AC8A4FF6FF400440B089044358
:10269000AC8201A8FFF77CFD1F48874202D1DDF81C
:1026A00010A001E0DDF80CA0A88900F4004040B1C2
:1026B0000AEBCA0000EB0A1031684900B0FBF1F8E0
:1026C00007E00AEBCA0000EB0A1031688900B0FB92
:1026D000F1F86420B8FBF0F004012009642101FB4B
:1026E0001089A88900F4004040B1322000EBC900F5
:1026F000B0FBF1F000F00700044308E0322000EBEB
:1027000009106421B0FBF1F000F00F0004432C81AC
:1027100006B0BDE8F0870000003801400146888817
:10272000C0F30800704700BFFEE7490050EAC1202F
:1027300018BF04204A0D18BF40F0010040F2FF729C
:10274000B2EB515F08BF40F00200012808BF05202E
:10275000704730380A2801D20120704700207047A6
:1027600000BF70470FB438B505A800901248009A12
:102770000499FDF7A3FD002000900F48FDF7D0FE5F
:10278000054600BF0D48008800F040000028F9D041
:1027900000240CE00848005D0849091D088000BFBE
:1027A0000648008800F040000028F9D0641CAC42C4
:1027B000F0D338BC5DF814FBD80100200044004081
:1027C0003EB50446002010214FF6FF72CDE90021EE
:1027D00002901148006800EB800002EA80014FF48B
:1027E000784322460020FFF7F9FB0B480068401CA5
:1027F00009490860084600680F280BDD00200860C2
:102800004FF6FF704FF48C73F022002100900846C1
:10281000FFF71BFA3EBD00001C00002010B56FF052
:102820000400FFF795FD0A4800680A49B0FBF1F083
:10283000094908700846007800EB4001C1EBC01060
:102840004FF6FF7101EAC0000449088010BD000086
:102850000800002000127A00200000202200002042
:102860000146114A12884A434FF0E0235A61002280
:102870009A611A46126942F001021A6100BF4FF0D4
:10288000E022106900F001021AB100F48032002A3F
:10289000F5D04FF0E022126922F001024FF0E02360
:1028A0001A6100229A6170472200002008B500BF1B
:1028B00000BF0024FFF7B2FF4FF4E13000F01EF834
:1028C0004FF4E13000F06EF8FFF710FA4FF6FF70AA
:1028D0004FF48C73F022002100900846FFF7B5F901
:1028E00000F0E0F808E0601CC4B24FF47A70FFF723
:1028F000B7FF2046FFF772FDF5E7000010B586B080
:102900000446012144F20400FFF732FC012108468D
:10291000FFF70EFC4FF40070ADF8140003208DF8A3
:10292000160018208DF8170005A91C48FFF7CDF8F0
:102930004FF48060ADF8140004208DF8170005A94D
:102940001648FFF7C2F825208DF8000003208DF807
:1029500001008DF8020001208DF803006846FFF7A2
:10296000ADFB01940020ADF80800ADF80A00ADF809
:102970000C00ADF810000C20ADF80E0001A90848BD
:10298000FFF760FE012240F225510548FFF735FEB2
:1029900001210348FFF7F2FD06B010BD0008014019
:1029A0000038014010B592B0044601214804FFF7F9
:1029B000CFFB01210420FFF7DBFB0420ADF844002E
:1029C00003208DF8460018208DF8470011A93148E2
:1029D000FFF77BF80820ADF8440004208DF847008D
:1029E00011A92C48FFF771F826208DF8300003203C
:1029F0008DF831008DF8320001208DF833000CA8DD
:102A0000FFF75CFB0D940020ADF83800ADF83A00FC
:102A1000ADF83C00ADF840000C20ADF83E000DA92B
:102A20001D48FFF70FFE012240F224411A48FFF72C
:102A3000E4FD012240F225511748FFF7DEFD012198
:102A40001548FFF79BFD1548FEF77AFF00200B9015
:102A5000089009901048001D0190002007900590F3
:102A60004FF400500A90802006900020049010201F
:102A700003900B48029001A90848FFF707F80122CC
:102A800080210548FFF786FD00210448FEF74CFF32
:102A900012B010BD00080140004400408000024018
:102AA0000000002010B500246EA0FFF75BFE00BF01
:102AB0006E4800780028FBD000BF6DA16D48FDF77F
:102AC0001DFD0028F9D06B48FFF77AFE6A4801889F
:102AD0006848FDF744FD0020674908806349087095
:102AE00066A0FFF73FFE00BF604800780028FBD0DB
:102AF00000BF5FA15F48FDF701FD0028F9D05D48E8
:102B0000FFF75EFE5C4801885A48FDF728FD00206B
:102B100059490880554908705CA0FFF723FE00BFA3
:102B2000524800780028FBD000BF51A15148FDF762
:102B3000E5FC0028F9D0504801884E48FDF70FFD0C
:102B400000204D4908804949087055A0FFF70AFE4A
:102B500000BF464800780028FBD000BF44A145488C
:102B6000FDF7CCFC0028F9D04248FFF729FE424887
:102B700001884048FDF7F3FC00203F4908803B49AD
:102B8000087050A0FFF7EEFD00BF3848007800281D
:102B9000FBD000BF36A13748FDF7B0FC0028F9D0C4
:102BA0003448FFF70DFE344801883248FDF7D7FC62
:102BB0000020314908802D49087045A0FFF7D2FD5B
:102BC00000BF2A4800780028FBD000BF28A1294870
:102BD000FDF794FC0028F9D02648FFF7F1FD2648C0
:102BE00001882448FDF7BBFC0020234908801F49C9
:102BF000087041A0FFF7B6FD00BF1C480078002810
:102C0000FBD000BF1AA11B48FDF778FC0028F9D0C3
:102C10001848FFF7D5FD184801881648FDF79FFCB6
:102C20000020154908801149087037A0FFF79AFD68
:102C300000BF0E4800780028FBD000BF0CA10D4853
:102C4000FDF75CFC0028F9D00A48FFF7B9FD0A48F7
:102C500001880848FDF783FC0020074908800349E4
:102C6000087010BD41540D0A000000002C00002027
:102C70004F4B0000100100202A00002041542B433C
:102C8000574D4F44453D310D0A00000041542B4340
:102C9000574155544F434F4E4E3D310D0A000000F1
:102CA00041542B43574A41503D225265646D695F40
:102CB00045364630222C2270617373776F7264221E
:102CC0000D0A000041542B43494653520D0A00009F
:102CD00041542B43495053544152543D2254435084
:102CE000222C223139322E3136382E312E313322F8
:102CF0002C383030300D0A0041542B4349504D4F91
:102D000044453D310D0A000041542B434950534581
:102D10004E440D0A0000000010B500290AD00878C2
:102D2000002807D005487844FEF7F4F9002801D0C0
:102D3000002010BD0248784410BD0000623A000037
:102D40005A3A000010B500290AD00878002807D0A8
:102D500005487844FEF7DEF9002801D0002010BDB8
:102D60000248784410BD0000523A00004A3A000080
:102D7000FDF75DBF00000000000000000000000043
:102D800000000404040404000004000014140A00F9
:102D9000000000000000000000000A0A1F0A0A1FCD
:102DA0000A0A000000040E1505060C14150E040096
:102DB000000012150D152E2C2A1200000000040A26
:102DC0000A36151529160000020201000000000055
:102DD000000000001008080404040404080810009F
:102DE00002040408080808080404020000000004A3
:102DF000150E0E150400000000000008083E08082B
:102E000000000000000000000000000002020100BD
:102E100000000000003F0000000000000000000073
:102E20000000000000020000002010100808040448
:102E30000202010000000E1111111111110E00000B
:102E40000000040604040404040E000000000E1137
:102E500011080402011F000000000E11100C1010D8
:102E6000110E00000000080C0C0A091F081C0000CD
:102E700000001F01010F1110110E000000000C12C4
:102E8000010D1311110E000000001E1008080404AB
:102E90000404000000000E11110E1111110E0000AB
:102EA00000000E11111916100906000000000000A4
:102EB0000400000000040000000000000004000006
:102EC00000040400000010080402020408100000BE
:102ED000000000003F003F0000000000000002046E
:102EE000081010080402000000000E11110804046C
:102EF0000004000000001C22292D2D1D221C0000B2
:102F0000000004040C0A0A1E1233000000000F1215
:102F1000120E1212120F000000001E110101010119
:102F2000110E000000000F1212121212120F0000F8
:102F300000001F120A0E0A02121F000000001F12DA
:102F40000A0E0A020207000000001C1201013911DA
:102F5000120C000000003312121E12121233000075
:102F600000001F0404040404041F000000003E08C5
:102F70000808080808080907000037120A060A129C
:102F8000123700000000070202020202223F000086
:102F900000003B1B1B1B15151535000000003B12E4
:102FA00016161A1A1217000000000E111111111135
:102FB000110E000000000F12120E020202070000A4
:102FC00000000E1111111117190E180000000F1238
:102FD000120E0A121237000000001E11010608101E
:102FE000110F000000001F1504040404040E00006B
:102FF0000000331212121212120C000000003312E1
:10300000120A0A0C040400000000151515150E0A1A
:103010000A0A000000001B0A0A04040A0A1B000036
:1030200000001B0A0A0A0404040E000000001F0925
:1030300008040402121F00001C0404040404040415
:1030400004041C0000020204040408080810100014
:103050000E0808080808080808080E00040A0000FE
:103060000000000000000000000000000000000060
:103070000000003F0204000000000000000000000B
:1030800000000000000C121C123C000000030202B1
:10309000020E1212120E000000000000001C1202AC
:1030A000120C000000181010101C1212123C00002C
:1030B00000000000000C121E021C00000018240476
:1030C000041E0404041E000000000000003C120C5A
:1030D000021C221C00030202020E12121237000010
:1030E0000004040000060404040E000000080800A8
:1030F000000C08080808080700030202021A0A0662
:103100000A1300000007040404040404041F000060
:1031100000000000000F151515150000000000004C
:10312000000F12121237000000000000000C1212F3
:10313000120C000000000000000F1212120E020715
:1031400000000000001C1212121C103800000000C9
:10315000001B06020207000000000000001E020C17
:10316000101E000000000004041E0404041C0000E3
:1031700000000000001B1212123C000000000000C2
:10318000001B0A0A04040000000000000015150ED0
:103190000A0A000000000000001B0A040A1B0000CD
:1031A00000000000003312120C08040300000000AD
:1031B000001E0804041E000018080808080C08086F
:1031C0000808180008080808080808080808080877
:1031D000060404040408040404040600160900009C
:1031E00000000000000000000000000000000000DF
:1031F00000000000000000000000000808080808A7
:10320000080800001818000000486C241200000094
:1032100000000000000000000000002424247F12B1
:1032200012127F12121200000000081C2A2A0A0C37
:103230001828282A2A1C0808000000222515151520
:103240002A585454542200000000000C1212120A92
:1032500076252911916E0000000606040300000087
:1032600000000000000000000040201010080808C6
:103270000808081010204000000204080810101070
:1032800010101008080402000000000008086B1C61
:103290001C6B080800000000000000000808080877
:1032A0007F0808080800000000000000000000007F
:1032B00000000000060604030000000000000000FB
:1032C000FE00000000000000000000000000000000
:1032D0000000000006060000000080404020201092
:1032E00010080804040202000000001824424242B0
:1032F0004242424224180000000000080E0808085C
:1033000008080808083E00000000003C4242422035
:1033100020100804427E00000000003C42422018B9
:1033200020404042221C00000000002030282424BD
:1033300022227E20207800000000007E0202021A75
:1033400026404042221C0000000000382402021ADD
:1033500026424242241800000000007E2222101063
:1033600008080808080800000000003C4242422407
:1033700018244242423C000000000018244242420D
:1033800064584040241C0000000000000000181891
:1033900000000000181800000000000000000008F5
:1033A000000000000008080400000040201008048D
:1033B00002040810204000000000000000007F0010
:1033C00000007F0000000000000000020408102040
:1033D00040201008040200000000003C4242464029
:1033E00020101000181800000000001C225A55552B
:1033F00055552D42221C0000000000080818141426
:10340000243C224242E700000000001F2222221E2C
:1034100022424242221F00000000007C4242010181
:1034200001010142221C00000000001F2242424212
:1034300042424242221F00000000003F4212121E80
:1034400012120242423F00000000003F4212121ED0
:1034500012120202020700000000003C22220101B9
:1034600001712122221C0000000000E7424242427A
:103470007E42424242E700000000003E0808080881
:1034800008080808083E00000000007C101010101A
:10349000101010101010110F0000007722120A0EE9
:1034A0000A12122222770000000000070202020224
:1034B00002020202427F00000000007736363636F4
:1034C0002A2A2A2A2A6B0000000000E346464A4ABC
:1034D00052525262624700000000001C22414141EA
:1034E00041414141221C00000000003F4242424253
:1034F0003E020202020700000000001C224141417E
:1035000041414D53321C60000000003F4242423EA8
:103510001212222242C700000000007C4242020434
:1035200018204042423E00000000007F4908080881
:1035300008080808081C0000000000E74242424258
:1035400042424242423C0000000000E74242222444
:1035500024141418080800000000006B4949494968
:103560005555362222220000000000E7422424188C
:103570001818242442E700000000007722221414C7
:1035800008080808081C00000000007E2120101018
:1035900008040442423F00000078080808080808B0
:1035A0000808080808087800000002020404080857
:1035B0000810102020204040001E10101010101085
:1035C0001010101010101E00003844000000000001
:1035D00000000000000000000000000000000000EB
:1035E00000000000000000FF0006080000000000CE
:1035F0000000000000000000000000000000003C8F
:103600004278444242FC0000000000030202021A19
:1036100026424242261A0000000000000000003846
:10362000440202024438000000000060404040783C
:103630004442424264D80000000000000000003C08
:10364000427E0202423C0000000000F08808087E32
:1036500008080808083E0000000000000000007C88
:1036600022221C023C42423C000000030202023AB9
:103670004642424242E700000000000C0C00000EEF
:1036800008080808083E000000000030300000383C
:10369000202020202020221E0000000302020272AF
:1036A000120A1612227700000000000E080808080F
:1036B00008080808083E0000000000000000007F25
:1036C0009292929292B70000000000000000003B2E
:1036D0004642424242E70000000000000000003C79
:1036E00042424242423C0000000000000000001B39
:1036F00026424242221E020700000000000000781D
:1037000044424242447840E000000000000000775C
:103710004C040404041F0000000000000000007CB2
:1037200042023C40423E0000000000000008083E0B
:1037300008080808083000000000000000000063CE
:103740004242424262DC000000000000000000E74C
:10375000422424140808000000000000000000EBD0
:103760004949555522220000000000000000007663
:1037700024181818246E000000000000000000E764
:103780004224241418080807000000000000007EEE
:1037900022100808447E000000C0202020202010B5
:1037A000202020202020C000101010101010101019
:1037B000101010101010101000060808080808104B
:1037C00008080808080806000C32C20000000000C3
:1037D00000000000000000000000000000000000E9
:1037E00000000000000000000000000000000000D9
:1037F00000000000000000000000000000000000C9
:1038000000000000000000000000000000000000B8
:1038100060006000600060006000600060004000C8
:103820002000200020000000000000006000600078
:10383000600000000000000000000000600660065C
:1038400030039801880044000000000000000000E0
:103850000000000000000000000000000000000068
:103860000000000000000000000000000000000058
:103870001002100210021002FE07FE0708020801E3
:10388000080108010801FE07FE0704010401040104
:1038900004010000000000000000000000004000E3
:1038A0004000F00158034C03CC034C00580070005A
:1038B000E000C001C00140034C035C034C0348011D
:1038C000F000400040000000000000000000000088
:1038D0000E010A01910091009100510051003A003F
:1038E000AE03A00250045004480448044804840273
:1038F0008403000000000000000000000000000041
:1039000038006C006C006C006C006C002C00980798
:103910001C011A01330133016301E300C308C60926
:103920003C07000000000000000000000C001C002C
:10393000100010000800040000000000000000005B
:103940000000000000000000000000000000000077
:103950000000000000000000000000000004000261
:103960000001800080004000400020002000200076
:103970002000200020002000400040008000800047
:10398000000100020004000000000000020004002A
:1039900008001000100020002000400040004000FF
:1039A00040004000400040002000200010001000B7
:1039B00008000400020000000000000000000000F9
:1039C000000000004000C0004000460C4E0FD00137
:1039D000F0015E0F460C4000400040000000000077
:1039E00000000000000000000000000000000000D7
:1039F0000000000000004000400040004000400087
:103A0000FE0F400040004000400040000000000069
:103A100000000000000000000000000000000000A6
:103A20000000000000000000000000000000000096
:103A30000000000000000000000000000C001C005E
:103A4000100010000800040000000000000000004A
:103A50000000000000000000000000000000000066
:103A6000FE07000000000000000000000000000051
:103A70000000000000000000000000000000000046
:103A80000000000000000000000000000000000036
:103A90000000000000000000000000001C001C00EE
:103AA0001C000000000000000000000000040006F0
:103AB000000200030001000180008000400040007F
:103AC00060002000200010001000080008000C001A
:103AD00004000600020000000000000000000000DA
:103AE0000000F00098010C030C030606060606060B
:103AF000060606060606060606060C030C039801D3
:103B0000F0000000000000000000000000000000C5
:103B1000000040007C006000600060006000600009
:103B20006000600060006000600060006000600095
:103B3000FC03000000000000000000000000000086
:103B40000000F800840102030603060300030001DD
:103B50008001C0006000200010000802040206027C
:103B6000FE03000000000000000000000000000054
:103B700000007800C6008601860180018001C00037
:103B800070008001000100030003060306038601A4
:103B9000F80000000000000000000000000000002D
:103BA000000080018001C001A001A00190018801F6
:103BB000880184018201FE0F800180018001800163
:103BC000E00700000000000000000000000000000E
:103BD0000000FC0304000400040004000400F400DE
:103BE0008C01040300030003060306038201840121
:103BF000F8000000000000000000000000000000CD
:103C00000000E00118030C030C0004000600E601AC
:103C100016030E0606060606060604060C02180320
:103C2000F0000000000000000000000000000000A4
:103C30000000F8070C0604020401000100018000E6
:103C400080004000400040006000600060006000B4
:103C50006000000000000000000000000000000004
:103C60000000F8010C030606060606060C021C03FB
:103C7000F000C8010C0306060606060606060C033D
:103C8000F001000000000000000000000000000043
:103C90000000F0000C010C030602060606060606EC
:103CA00006078C0678060006000300030C018C0151
:103CB000780000000000000000000000000000008C
:103CC000000000000000000000000000E000E00034
:103CD000E00000000000000000000000E000E00044
:103CE000E0000000000000000000000000000000F4
:103CF0000000000000000000000000006000600004
:103D00000000000000000000000000000000600053
:103D100060004000200020000000000000000000C3
:103D20000004000200018000400020001000080094
:103D30000400080010002000400080000001000284
:103D4000000400000000000000000000000000006F
:103D5000000000000000000000000000FE0700005E
:103D600000000000FE07000000000000000000004E
:103D70000000000000000000000000000000000043
:103D80000400080010002000400080000001000234
:103D90000004000200018000400020001000080024
:103DA000040000000000000000000000000000000F
:103DB0000000E0031806040C040C0C0C0C0C0007AB
:103DC000800140004000400000000000E000E000F2
:103DD000E000000000000000000000000000000003
:103DE000E00018030C02CC0564056605A605B604C0
:103DF000B604B604B604B602E4010C040C021803BF
:103E0000F0000000000000000000000000000000C2
:103E10000000600060005000D0009000900088001A
:103E200088010801F80104030403040202020206E7
:103E30000F0F000000000000000000000000000064
:103E40000000FE008C030C030C030C030C038C011C
:103E5000FC000C030C020C060C060C060C060C03F2
:103E6000FE01000000000000000000000000000053
:103E70000000E00318030C060C040404060006000E
:103E8000060006000600060006040C040C021803D7
:103E9000F000000000000000000000000000000032
:103EA00000007F008C010C030C030C060C060C06B2
:103EB0000C060C060C060C060C060C030C038C01FD
:103EC0007F00000000000000000000000000000073
:103ED0000000FF03060306040604060086008600B1
:103EE000FE00860086008600060006040604060220
:103EF000FF030000000000000000000000000000C0
:103F00000000FF0306030604060406008600860080
:103F1000FE008600860086000600060006000600F9
:103F20001F00000000000000000000000000000072
:103F30000000F00018010C020C020402060006004A
:103F400006000600C60F060306030C030C03180345
:103F5000F000000000000000000000000000000071
:103F600000000F0F060606060606060606060606EB
:103F7000FE070606060606060606060606060606E8
:103F80000F0F000000000000000000000000000013
:103F90000000FC03600060006000600060006000E2
:103FA0006000600060006000600060006000600011
:103FB000FC03000000000000000000000000000002
:103FC0000000F807C000C000C000C000C000C00072
:103FD000C000C000C000C000C000C000C000C000E1
:103FE000C000C60066003C000000000000000000A9
:103FF0000000CF038601C6004600260016003600EA
:104000002E006E004600C6008600860106010603EB
:104010008F0700000000000000000000000000000A
:1040200000001F000600060006000600060006004D
:104030000600060006000600060006040604060246
:10404000FF0300000000000000000000000000006E
:1040500000000707860386038E038E034E034E037C
:104060004A035A035A033A03320332033203120358
:1040700087070000000000000000000000000000B2
:1040800000008E0F0C021C021C0234023402640277
:1040900064024402C402840284038403040304030C
:1040A0001F020000000000000000000000000000EF
:1040B0000000F00098010C030C0206060606060636
:1040C000060606060606060606060C020C039801FE
:1040D000F0000000000000000000000000000000F0
:1040E0000000FF000603060606060606060606068C
:1040F0008603FE0006000600060006000600060015
:104100001F00000000000000000000000000000090
:104110000000F00098010C030C02060606060606D5
:10412000060606060606060676064C02CC0398012D
:10413000F000800700030000000000000000000005
:104140000000FF010603060606060606060606032D
:10415000FE004600C600860086010603060306062A
:104160000F0E000000000000000000000000000032
:104170000000F8020C030602060206000E003C00D6
:10418000F800E003800300070206020606060C039F
:10419000F00100000000000000000000000000002E
:1041A0000000FE07620461086108600060006000B2
:1041B00060006000600060006000600060006000FF
:1041C000F8010000000000000000000000000000F6
:1041D00000001E070C020C020C020C020C020C0266
:1041E0000C020C020C020C020C020C020C02180154
:1041F000F0000000000000000000000000000000CF
:1042000000000F070602040104010C010C018800E4
:104210008800980098005000500070003000200086
:10422000200000000000000000000000000000006E
:104230000000F70E6204420446044604640264026D
:10424000E402E4029C029C01980198018801880024
:1042500088000000000000000000000000000000D6
:1042600000009E070C01080118019000B0006000DA
:10427000200060006000D000900088010801040365
:104280008E07000000000000000000000000000099
:1042900000000F0F060404020C0208011801B80008
:1042A000B0007000600060006000600060006000AE
:1042B000F801000000000000000000000000000005
:1042C0000000FC070C020603020180018000400090
:1042D0004000200020001000180008040C04040214
:1042E000FE0300000000000000000000E0032000CA
:1042F00020002000200020002000200020002000BE
:1043000020002000200020002000200020002000AD
:1043100020002000E003000000000000000000007A
:104320000400040008000800100010001000200025
:10433000200040004000C00080008000000100011B
:104340000002000200020004000000007C004000A7
:10435000400040004000400040004000400040005D
:10436000400040004000400040004000400040004D
:10437000400040007C000000000060009000080148
:10438000000000000000000000000000000000002D
:10439000000000000000000000000000000000001D
:1043A000000000000000000000000000000000000D
:1043B00000000000000000000000000000000000FD
:1043C00000000000000000000000000000000000ED
:1043D000000000000000FF0F000000001800600057
:1043E00000000000000000000000000000000000CD
:1043F00000000000000000000000000000000000BD
:1044000000000000000000000000000000000000AC
:10441000000000000000000000000000F0010C039C
:104420000C030003E0031C030E03060306038E0BBC
:104430007C0E0000000000000000000000000000F2
:1044400008000E000C000C000C000C00CC013C031A
:104450001C060C060C060C060C060C060C021C03B3
:10446000E401000000000000000000000000000067
:10447000000000000000000000000000F0008C01BF
:104480008C01860106000600060006020C020C01E3
:10449000F00000000000000000000000000000002C
:1044A0000002C003000300030003000378038C0331
:1044B0000C030603060306030603060304038C0726
:1044C0007801000000000000000000000000000073
:1044D000000000000000000000000000E0011803E0
:1044E00008020C060C06FC070C000C00180418024D
:1044F000E0010000000000000000000000000000DB
:104500000000C0036006300630003000FE013000BD
:10451000300030003000300030003000300030001B
:10452000FC0100000000000000000000000000008E
:10453000000000000000000000000000F007D806A6
:104540008C018C018C019801F8000C00FC00CC035C
:10455000060306038E03F8000000000000000000C0
:1045600008000E000C000C000C000C00EC011C03F9
:104570000C030C030C030C030C030C030C030C03C3
:104580009E07000000000000000000000000000086
:104590000000600060000000000040007C0060003F
:1045A000600060006000600060006000600060000B
:1045B000FC030000000000000000000000000000FC
:1045C0000000C001C001000000000001F0018001F6
:1045D00080018001800180018001800180018001D3
:1045E00080018001CC007C00000000000000000081
:1045F00008000E000C000C000C000C008C038C005A
:104600008C004C006C005C008C008C010C010C03D5
:104610009E070000000000000000000000000000F5
:1046200040007C006000600060006000600060008E
:10463000600060006000600060006000600060007A
:10464000FC0300000000000000000000000000006B
:104650000000000000000000000000003707EE0628
:1046600066066606660666066606660666066606EA
:10467000FF0F00000000000000000000000000002C
:10468000000000000000000000000000EE011C031C
:104690000C030C030C030C030C030C030C030C03A2
:1046A0009E07000000000000000000000000000065
:1046B000000000000000000000000000F000980171
:1046C0000C03060606060606060606060C030C0381
:1046D000F0000000000000000000000000000000EA
:1046E000000000000000000000000000EE011C03BC
:1046F0000C060C060C060C060C060C060C031C0320
:10470000EC010C000C003E00000000000000000066
:1047100000000000000000000000000078028C0390
:104720000C030603060306030603060304038C03B7
:10473000780300030003C007000000000000000031
:104740000000000000000000000000009F03580669
:104750003806180018001800180018001800180073
:10476000FF0000000000000000000000000000004A
:10477000000000000000000000000000F0031C0327
:104780000C020C023800F000C003040304038C0385
:10479000FC0100000000000000000000000000001C
:1047A000000000002000200030003000FE0130003A
:1047B0003000300030003000300030003002300275
:1047C000E001000000000000000000000000000008
:1047D0000000000000000000000008028E030C032F
:1047E0000C030C030C030C030C030C030C039C07BD
:1047F0007801000000000000000000000000000040
:104800000000000000000000000000001E070C0275
:104810000801080118019000B000B00060006000BD
:104820002000000000000000000000000000000068
:10483000000000000000000000000000F70E62040D
:10484000460464026402EC029C01980198019801FC
:104850000800000000000000000000000000000050
:10486000000000000000000000000000BC0718016C
:104870001001B00060006000E00090000801080333
:104880009E07000000000000000000000000000083
:104890000000000000000000000000009E0708016A
:1048A0000801080190009000B00060006000600006
:1048B0002000200024001C00000000000000000078
:1048C000000000000000000000000000FC01840166
:1048D000C4004400600020003000180208020C03ED
:1048E000FC01000000000000000000000003800048
:1048F00080008000800080008000800080004000F8
:104900002000400080008000800080008000800047
:104910008000800000030000400040004000400094
:104920004000400040004000400040004000400087
:104930004000400040004000400040004000400077
:104940004000400040004000000000000C0010004B
:1049500010001000100010001000100010002000C7
:104960004000200010001000100010001000100087
:10497000100010000C00000000001C002204C20403
:1049800080030000000000000000000000000000A4
:104990000000000000000000000000000000000017
:1049A0000000000000000000000000000000000007
:1049B00000000000000000000000000000000000F7
:1049C00000000000000000000000000000000000E7
:1049D00000000000000000000000000000000000D7
:1049E00000000000000000000000000000000000C7
:1049F0000000C001C001C001C001C001C001C00170
:104A00008000800080008000800080008000000026
:104A10000000000000008001C003C003800100000E
:104A20000000000000000000000000000000E01C8A
:104A3000E01CF01E700E3807180308018400000007
:104A40000000000000000000000000000000000066
:104A50000000000000000000000000000000000056
:104A60000000000000000000000000000000000046
:104A70000000000020102010201020102010FE7FC9
:104A8000FE7F100810081008100810081008100801
:104A9000FE7FFE7F080408040804080408040000E0
:104AA0000000000000000000000000000000000006
:104AB00000010001C0076019103118311839183988
:104AC00038017001E001C0038007000F001D0039AC
:104AD00000311C311C310C310C11180DE0070001A4
:104AE00000010001000000000000000000000000C4
:104AF000000000001C1036186308630C6304630494
:104B0000630263026301361D9C3780228063406329
:104B1000406320632063306310221836081C0000B5
:104B20000000000000000000000000000000000085
:104B300000000000F00098018C018C018C018C01B8
:104B40008C00CC007800183E1C083608320863043C
:104B50006304C304C303834306438E26781C00000A
:104B600000000000000000000000000000001C0029
:104B70003C003C003000300010000C00060000003B
:104B80000000000000000000000000000000000025
:104B90000000000000000000000000000000000015
:104BA00000000000000000000000000000000040C5
:104BB000002000100008000C0004000600030003A1
:104BC000000380018001800180018001800180015B
:104BD000800100030003000300060006000C00082B
:104BE0000010002000400000000000000000020053
:104BF000040008001000300020006000C000C00069
:104C0000C00080018001800180018001800180015D
:104C10008001C000C000C0006000600030001000D3
:104C20000800040002000000000000000000000076
:104C3000000000000000000000018003800300016C
:104C40001C713C79783DC0070001C007783D3C7974
:104C50001C7100018003800380010000000000003F
:104C60000000000000000000000000000000000044
:104C70000000000000000000000000010001000131
:104C80000001000100010001FC7F000100010001A2
:104C90000001000100010001000000000000000010
:104CA0000000000000000000000000000000000004
:104CB00000000000000000000000000000000000F4
:104CC00000000000000000000000000000000000E4
:104CD00000000000000000001C003C003C00300010
:104CE000300010000C000600000000000000000072
:104CF00000000000000000000000000000000000B4
:104D00000000000000000000FE7F00000000000026
:104D10000000000000000000000000000000000093
:104D20000000000000000000000000000000000083
:104D30000000000000000000000000000000000073
:104D40000000000000000000000000000000000063
:104D500000000000000018003C003C0018000000AB
:104D60000000000000000000000000000000004003
:104D7000006000200030001000180008000C000443
:104D8000000600020003000180018000C000400016
:104D90006000200030001000180008000C00040023
:104DA00006000200000000000000000000000000FB
:104DB00000000000C007600C3018183018301820B0
:104DC0000C600C600C600C600C600C600C600C6083
:104DD0000C601820183018303018600CC007000024
:104DE00000000000000000000000000000000000C3
:104DF0000000000000018001F801800180018001B5
:104E0000800180018001800180018001800180019A
:104E100080018001800180018001C003F81F000033
:104E20000000000000000000000000000000000082
:104E300000000000E007101C0818043004300C309B
:104E40000C3000300018000800040002000180004F
:104E500040002020102008200430FC1FFC1F000010
:104E60000000000000000000000000000000000042
:104E700000000000E003180E0C0C0C180C180C18A5
:104E80000018000C0006C003000E001800100030CF
:104E900000300C300C300C100C18180CE003000023
:104EA0000000000000000000000000000000000002
:104EB00000000000000C000E000E000F800E800E9F
:104EC000400E600E200E100E100E080E040E040E82
:104ED000FE7F000E000E000E000E000E000EC07FC2
:104EE00000000000000000000000000000000000C2
:104EF00000000000F03FF03F10001000100008001C
:104F00000800C807280C18180810003000300030BE
:104F100000300C300C3004180418080CF0030000AA
:104F20000000000000000000000000000000000081
:104F300000000000800FC010203010301800180052
:104F400008000C008C0F6C183C301C600C600C606E
:104F50000C600C601860182030306018C00700002A
:104F60000000000000000000000000000000000041
:104F700000000000F83FF83F1C100C08040804046F
:104F80000004000200020001000100018000800016
:104F90008000C000C000C000C000C000C000000011
:104FA0000000000000000000000000000000000001
:104FB00000000000E007300C18180C300C300C30EA
:104FC0001C3038187008E007B007180E0C1C0638A3
:104FD00006300630063006300C18180CE0030000CE
:104FE00000000000000000000000000000000000C1
:104FF00000000000E00318040C080C18061006302E
:1050000006300630063006380C3C1836F0310030D9
:105010000018001800180C0C0C060C03F00100001E
:105020000000000000000000000000000000000080
:105030000000000000000000000000000000000070
:1050400000008001C003C0038001000000000000D8
:105050000000000000008001C003C00380010000C8
:105060000000000000000000000000000000000040
:105070000000000000000000000000000000000030
:105080000000C000C00000000000000000000000A0
:1050900000000000000000000000C000C000800010
:1050A0008000400040000000000000000000000000
:1050B000000000200010000800040006000380012A
:1050C000C0006000300018000C00180030006000C4
:1050D000C00080010003000600040008001000204A
:1050E00000000000000000000000000000000000C0
:1050F00000000000000000000000000000000000B0
:105100000000FE7F00000000000000000000FE7FA5
:10511000000000000000000000000000000000008F
:10512000000000000000000000000000000000007F
:10513000000004000800100020006000C000800192
:1051400000030006000C001800300018000C0006D8
:1051500000038001C000600020001000080004006F
:10516000000000000000000000000000000000003F
:105170000000C0073018083008600C601C601C601C
:105180001C600030001C00060001800080008000D0
:105190008000000000008001C003C0038001000007
:1051A00000000000000000000000000000000000FF
:1051B00000000000C0076018103018200C2F8C4D24
:1051C000864CC64CC64C664C6644664466266626CB
:1051D0006615CC1C0C40082018303018C0070000A1
:1051E00000000000000000000000000000000000BF
:1051F00000000001C001C001C001400160032003A4
:10520000200320033006100610061006F80F080CC5
:10521000080C080C0C0C0418041806181F7C00005D
:10522000000000000000000000000000000000007E
:1052300000000000FE07181C18381830183018300D
:1052400018301818180CF80718181830182018609B
:10525000186018601860186018301818FE0F0000E9
:10526000000000000000000000000000000000003E
:1052700000000000C0276038103018200C400C409F
:1052800004000600060006000600060006000600F0
:1052900006000C400C400C2018303018C0070000ED
:1052A00000000000000000000000000000000000FE
:1052B00000000000FE03180E1818183018301830BF
:1052C000186018601860186018601860186018601E
:1052D00018601830183018101818180EFE03000047
:1052E00000000000000000000000000000000000BE
:1052F00000000000FE3F1830182018601840180009
:1053000018081808180CF80F180C180818081800B6
:10531000180018001840184018201830FE3F0000F0
:10532000000000000000000000000000000000007D
:1053300000000000FE7F1870184018C01880180088
:10534000181018101818F81F18181810181018002E
:105350001800180018001800180018007E0000003F
:10536000000000000000000000000000000000003D
:1053700000000000C013701C101018100C200C202E
:1053800004000600060006000600060006FC0630C3
:1053900006300C300C30183018303008C0070000D0
:1053A00000000000000000000000000000000000FD
:1053B000000000003F7E0C180C180C180C180C187C
:1053C0000C180C180C180C18FC1F0C180C180C18C6
:1053D0000C180C180C180C180C180C183F7E000038
:1053E00000000000000000000000000000000000BD
:1053F00000000000F81F8001800180018001800111
:105400008001800180018001800180018001800194
:10541000800180018001800180018001F81F00006F
:10542000000000000000000000000000000000007C
:1054300000000000E07F00060006000600060006EF
:10544000000600060006000600060006000600062C
:10545000000600060006000600060006000600061C
:105460000E060E038E01FC0000000000000000008C
:10547000000000007E7C181818081804180618028E
:10548000180198019801D801B803380318071806C5
:10549000180E180C181C1818183018307EFC000054
:1054A00000000000000000000000000000000000FC
:1054B000000000007E0018001800180018001800F6
:1054C000180018001800180018001800180018001C
:1054D000180018001840184018201830FE3F00002F
:1054E00000000000000000000000000000000000BC
:1054F000000000001FF81C381C381C381C3C3434D9
:105500003434343434367432643264326432643164
:10551000C431C431C431C430C43084309FFC000075
:10552000000000000000000000000000000000007B
:10553000000000001F7C1C103C103410341074104C
:105540006410E410C410C4118411841304130417EC
:105550000416041E041C041C041C04181F1800005C
:10556000000000000000000000000000000000003B
:1055700000000000C003300C181808100C300C306C
:1055800006600660066006600660066006600660EB
:1055900006600C200C3008101818300CC0030000F6
:1055A00000000000000000000000000000000000FB
:1055B00000000000FE0F18181830186018601860FE
:1055C0001860186018301818F80F18001800180024
:1055D0001800180018001800180018007E000000BD
:1055E00000000000000000000000000000000000BB
:1055F00000000000C003300C18180C100C300C20F8
:10560000066006600660066006600660066006606A
:105610000660E4612C331C321816300EC007004CB3
:10562000007C0038000000000000000000000000C6
:1056300000000000FE07181C183818301830183009
:1056400018301818180CF8079803180318071806CC
:105650001806180E180C180C181C18187E78000064
:10566000000000000000000000000000000000003A
:1056700000000000E027303818300C200C200C000F
:105680000C0018007800E003800F001E0038007046
:10569000006004600460086018303818C80F00000B
:1056A00000000000000000000000000000000000FA
:1056B00000000000FC3F8C21846182418241800116
:1056C00080018001800180018001800180018001D2
:1056D000800180018001800180018001E0070000DD
:1056E00000000000000000000000000000000000BA
:1056F000000000003F7C0C100C100C100C100C1063
:105700000C100C100C100C100C100C100C100C10B9
:105710000C100C100C100C1008083804E0030000EA
:105720000000000000000000000000000000000079
:10573000000000003EF8182018201820301030100B
:1057400030103010600860086008E00CC004C0042D
:10575000C004800380038003800300010001000077
:105760000000000000000000000000000000000039
:1057700000000000DFF38661862186218C210C2148
:105780008C238C138C138C134C1358125816580EF0
:10579000380E380E380E300C1004100410040000BF
:1057A00000000000000000000000000000000000F9
:1057B000000000007E3E18083808300430047002F3
:1057C0006002E001C001C001800180034003400786
:1057D00020062006100C100C081808183E7C00004B
:1057E00000000000000000000000000000000000B9
:1057F000000000007E7C1C10181018083008300CC7
:10580000700460046002C002C002C0018001800117
:10581000800180018001800180018001E00700009B
:105820000000000000000000000000000000000078
:1058300000000000F83F18180818040C040E0006B9
:105840000007000380038001C001C000E000600089
:1058500070003000382018201C100C18FE1F0000AB
:105860000000000000000000000000000000C03F39
:105870004000400040004000400040004000400028
:105880004000400040004000400040004000400018
:105890004000400040004000400040004000400008
:1058A0004000C03F000000000000000000000000B9
:1058B00000000800180018001000300020006000F0
:1058C00060004000C00080008001800100010003F2
:1058D0000002000600060004000C00080018001872
:1058E0000010003000200000000000000000FC0359
:1058F0000002000200020002000200020002000298
:105900000002000200020002000200020002000287
:105910000002000200020002000200020002000277
:105920000002FC03000000000000000000008007EF
:10593000C006200810100000000000000000000059
:105940000000000000000000000000000000000057
:105950000000000000000000000000000000000047
:105960000000000000000000000000000000000037
:105970000000000000000000000000000000000027
:105980000000000000000000000000000000000017
:105990000000000000000000000000000000000007
:1059A000000000000000FFFF000000000000780081
:1059B000C000000100000000000000000000000026
:1059C00000000000000000000000000000000000D7
:1059D00000000000000000000000000000000000C7
:1059E00000000000000000000000000000000000B7
:1059F00000000000000000000000000000000000A7
:105A00000000F00318060C0C0C0C000C800F700C3E
:105A10001C0C0C0C060C060C064C0C4FF838000045
:105A20000000000000000000000000000000000076
:105A3000000010001E0018001800180018001800C0
:105A40001800180FD81838303860186018601860BF
:105A5000186018601860182038307818C8070000DF
:105A60000000000000000000000000000000000036
:105A70000000000000000000000000000000000026
:105A80000000C007700C181818180C180C000C0037
:105A90000C000C000C20182018103008C007000063
:105AA00000000000000000000000000000000000F6
:105AB00000000010001E0018001800180018001840
:105AC0000018E01B301C181818180C180C180C18AB
:105AD0000C180C180C180818181C307AE009000073
